:020000040800F2
:10000000F0FF00102996060855FE050845BD0108B9
:10001000C9960608C9960608C99606080000000099
:1000200000000000000000000000000059FE05086C
:100030005DFE05080000000061FE050861AD0108D5
:10004000C9960608C9960608C9960608C9960608FC
:10005000C9960608C9960608E1AF0008E9AF00088E
:10006000F1AF0008F9AF000801B00008B1AC00081A
:10007000C5AC0008D9AC0008EDAC000801AD000823
:1000800015AD000829AD0008C9960608C9960608EE
:10009000C9960608C9960608C996060809B0000858
:1000A000F5C7000855C7000805C8000845C700087F
:1000B0007DC700088DC700089DC700082DA4000853
:1000C000A1BD000835A40008A5BD0008C996060812
:1000D000C996060895A6010899A701089DA80108D8
:1000E00011B00008C9960608BD04060815C8000826
:1000F000CDC7000825C80008BDC700083DAD0008F1
:10010000C9960608C9960608ADC70008C99606082C
:10011000A1A90108A5AA010875DB0008A9DB000850
:1001200051AD000865AD000879AD00088DAD00083F
:10013000A1AD0008C9960608C9960608C996060822
:10014000C9960608C9960608C996060865FE0508F8
:10015000B5AD0008C9AD0008DDAD0008A9AB0108C8
:100160003DA40008A9BD0008C9960608C99606085E
:10017000C9960608C9960608C9960608C9960608CB
:08018000C9960608C99606089D
:10800000074BD0F8E4105B68D0F8F0205B1A9A4276
:10801000B8BFC0F8F030012380F81C310020704751
:10802000001000E0B04B00EB80022DE9F04103EBC3
:10803000C20553F832205268918ACC074FEA800C6F
:1080400076D4CCB2A70744D5BFF35F8F297F01292F
:10805000CCB200F0E6804100148BBFF35F8F0CEBD5
:10806000000403EBC404257F022D00F006810CEB15
:10807000000403EBC404257F032D08D1A47F34B191
:108080000C181C4494F87850002D40F05B819488C3
:10809000A4B244F4806494800C181C4494F97AE0EF
:1080A0000CEB000403EBC404247F013474450ED1AF
:1080B00001441944002481F8784091F8791000298E
:1080C00040F0D480604403EBC00000234376BDE859
:1080D000F081660765D400EB40071F4414F04004AC
:1080E0008EB297F97AE04FEA400100F0DA80168A02
:1080F0006C6AF6B204F80E605FFA8EF6741C64B215
:1081000095F81C8087F87A40E51CA845A64600F043
:1081100045810CEB000503EBC5052D7FAC42BFD1BB
:108120000C1802361C4476B284F87A60B646B7E77B
:10813000118821F400610904090C1180118889B2A9
:1081400041F48061118000EB40041C44AE7F0021AB
:1081500084F87A104100002E52D094F87840002C18
:108160004BD00CEB000403EBC4040144247F1944FE
:108170000125022C81F8785004D1118889B241F48C
:10818000006111800CEB000103EBC101897E41F01D
:10819000010111820CEB000203EBC2031B7FBDE85F
:1081A000F08100EB40061E44AC7F012186F8791077
:1081B00000FA01F1002C00F0908096F87840002C35
:1081C00040F094800CEB000403EBC404647F002CAB
:1081D00000F0BB800D181D44148895F87AE0A4B215
:1081E0000EF1010E44F400744FFA8EFE148085F8EF
:1081F0007AE01488E705FCD452E7EC7EFF2CB0D07F
:108200000CEB000403EBC404A57E05F0FE0515820B
:10821000E27EFF2ABED001441944FF2281F87A2071
:10822000B8E7A97F00293FF416AF00EB40051D44D5
:10823000410095F87860002E3FF40EAF168826F4C2
:1082400080663604360C1680BFF35F8F85F8794060
:10825000148B148895F97AE0A4B244F40074148065
:108260009488A4B244F48064948019E7918821F43E
:1082700040710904090C918024E7A47F002C3FF48D
:10828000F6AE0C181C4494F87850002D3FF4EFAE75
:1082900094F97AE0148824F480642404240C148073
:1082A00014E036067FF5FCAEBEF1FF3F7DD02C6AB0
:1082B00014F80E40E4B214822C7F0EF1010E4FFA36
:1082C0008EFE744587F87AE07FF4EAAE948824F451
:1082D00080642404240C9480E2E696F87840002C14
:1082E0003FF470AF76E700BF181A00202C7F6F6A4A
:1082F000022C148836D924F480642404240C1480BD
:10830000B2F810E096F97A405FFA8EFE07F804E0C2
:10831000D5F824E01588ADB245F400751580E4B2B7
:10832000178A651C6DB2FFB20EF8057004F1020EDB
:108330009488A4B24FFA8EFE44F4806486F87AE002
:10834000948056E794F97AE0C0E71488A4B244F424
:10835000807414800C181C44012594F97AE084F888
:10836000785046E7A4B244F400741480B2F810E0E8
:1083700096F97A405FFA8EFE07F804E0E4B2D5F889
:1083800024E0178A651C6DB2FFB20EF8057004F187
:10839000030E4FFA8EFE86F87AE02AE7958825F4D8
:1083A00080652D042D0C9580B3E6E97E87F87A4030
:1083B000C9B21182A97F19B9297F00297FF4EAAED9
:1083C000918821F480610904090C9180E2E600BFE4
:1083D0001B4B016803F57D7C02E02C3363452CD0F8
:1083E0001A688A42F9D170B593F804E0427996454B
:1083F0000BD02C33634505D01A688A42F4D02C3355
:108400006345F9D14FF0FF3070BD9E468468DEF8B9
:108410000C50A5424FF0000208D00132032A0EF1A1
:108420000C0EE6D0DEF80C50A542F6D1DEF8105066
:10843000C668B542F1D150B270BD4FF0FF30704701
:108440008CA30608002A4FEA014C30B503460ABF48
:10845000E6468E468C4600F1C005002419689A68ED
:1084600041EA0C0142EA0E029A60C3E900140C339F
:10847000AB42F3D1D0F8C030C0F8C44043EA0E0399
:10848000C0F8C030C0F8C84030BD00BF836919696A
:10849000B3F80CC00A6830B49C6822F0010224686A
:1084A0000A60A28992B222EA0C02A281027D0068CF
:1084B0001F2A06D94568203A082494402C4245D00A
:1084C000FEE70568082494402C42F9D1202404FAE0
:1084D00002F28260264A1278002A35D01A7E012ADA
:1084E00039D0D3F8F4200132C3F8F420EFF311812E
:1084F000502282F3128858685C6C026822EA0402F7
:108500009C6C2243C9B2026081F31188D3E90C400C
:108510001A6999681D6C096814605061D3E90E40AE
:10852000546090600024B3F8A800D5604C62C86223
:1085300010680124204310601C7683F8F1408A897A
:108540009B8913439BB28B8130BC7047202404FA73
:1085500002F2C260BEE7002283F8F120D3F8F800EF
:108560000A68013022F00102C3F8F8000A60EBE764
:108570000400001010B40C4C6368002B11DD0020C7
:1085800004F1080C0146DCF8A03003F1C002596088
:108590000C339342FBD16368013083420CF5807C3D
:1085A000F1DC5DF8044B704704000010F0B5484C56
:1085B00004EB401292F8243403B9F0BD454B4FF060
:1085C0008C0C0CFB003C93F8E46493F8E5549CF8A5
:1085D000867082F80A74AE424FF000024FEA401EE5
:1085E0008CF886200ED005EB450203EBC20292F810
:1085F000E8C40CF1FF37012F4FEA450259D9BCF10D
:10860000030F51D004EB0E00A0F80814EFF3118211
:10861000902383F3128890F80A34B0F8081443EAE0
:1086200041030021D2B29BB280F80A1482F3118870
:108630002178D0F820441A0982EA13225A40C9B19D
:10864000D0F80C14D4F8A040D2431B019BB202F026
:108650000F0201208840134304F1C0015A0013F4B3
:10866000004F93B202D16268024362600C34A142AF
:10867000F4D1F0BDD0F80C14D4F8A0401B01103197
:108680009BB202F00F0201208840134304F1C001A5
:108690005A0013F4004F93B202D162680243626041
:1086A0000C34A142F4D1F0BD6F1C07F00307B742B0
:1086B000A8D02A4403EBC203184490F8F51400290B
:1086C000A0D004EB0E03012283F80A249AE700BF2E
:1086D00004000010181A0020704700BF024B03EB83
:1086E000401393F825047047040000104368B0F865
:1086F000502010B41A83EFF31182502383F31288B1
:108700004168446C0B6823EA0403C46C2343D2B26F
:108710000B6082F31188D0E907418268036912680F
:108720001C605961D0E909415C60C46A9960B0F885
:108730006010DC600023D1625DF8044B0376704763
:1087400010B4037D02681F2B09D95468203B2021F7
:1087500001FA03F31C4215D15DF8044B704714680D
:10876000202101FA03F31C42F6D00D494068002491
:1087700081F8484501685DF8044B21F00101016072
:108780009360704706494068002481F848450168B5
:108790005DF8044B21F001010160D360704700BF18
:1087A000181A0020704700BF0B4890F83C1589B19B
:1087B00001EB4101002310B4490000F244501C4673
:1087C00050F82320063302B114608B42F8D15DF8D3
:1087D000044B7047704700BF040000100B4890F82E
:1087E0003C1589B101EB4101002310B4490000F2AE
:1087F00044501C4650F82320063302B114608B42CB
:10880000F8D15DF8044B7047704700BF04000010BA
:1088100001207047034B00EB400003EBC00393F8CB
:1088200055057047040000101F4890F83C35002B98
:1088300039D000222DE9F04300F244531B4E1C4D69
:108840004FF0500E4FF02C0C144607E053F8181B55
:108850000C6090F83C150132914222DD197C002910
:10886000F4D05F68B90AA1F5801105EB010952291E
:108870004FF0FE0898BF99F8F483EFF311898EF357
:108880001288796A0CFB08680131C8F87415B98A36
:1088900089B241F001015FFA89F8B98288F3118841
:1088A000D4E7BDE8F083704704000010181A0020D8
:1088B0008CA3060800EE100AB8EE400A704700BF0D
:1088C000BCEEC00A10EE103A98B270470C4B0D493E
:1088D000DB68DB43C3F30223C3F104030122DBB2F1
:1088E00002FA03F301EB000C1B0103F0F0038CF818
:1088F0000033430900F01F00824041F823207047F5
:1089000000ED00E000E100E010B4037D02681F2BE1
:1089100009D95468203B202101FA03F31C4215D1E8
:108920005DF8044B70471468202101FA03F31C42E0
:10893000F6D00D494068002481F8B44701685DF81D
:10894000044B21F0010101609360704706494068C3
:10895000002481F8B44701685DF8044B21F001015F
:108960000160D360704700BF181A0020122301482D
:108970000B80704788010020042301480B8070475A
:108980009C0100201C48D0F8103AD0F8182A10B5E5
:108990009B184FF01A040C8001D1184810BD174ADB
:1089A000D0F8140A02F1100411464FF0000E4FEAFD
:1089B000137CB3F1204F34BF0CF1300C0CF1370CA9
:1089C00081F802C081F803E002318C424FEA0313C0
:1089D000EDD102F108040021030FB0F1204F34BFA4
:1089E000303337339374D174023294424FEA00101B
:1089F000F2D1024810BD00BF0070FF1FA00100208F
:108A0000002310B409490A4C0A4A03704FF4EB7C66
:108A100043822E23C0F80A40A0F806C05DF8044B3C
:108A2000C0F80210C0F80E20038170474A01B4005C
:108A3000C2010E019600440082B01D4B1D49002268
:108A400001920193019B04330193019B1A688B6887
:108A500003F00C03042B02D0082B05D0164A174B49
:108A6000C3F8B82702B0704748684B68400203F06B
:108A70003F0314D44A681049B1FBF3F3C2F38812E0
:108A800003FB02F20B4B5B68C3F3014301335B0052
:108A9000B2FBF3F2094BC3F8B82702B0704749683C
:108AA000B2FBF3F2C1F3881303FB02F2EAE700BF63
:108AB00050280040003802400024F400181A00201A
:108AC00038B5074BD3F8BC371B6A14460D46984798
:108AD0004FF4007302682A600020236038BD00BF95
:108AE000181A002008B5064BD3F8BC3723B15B69D0
:108AF0009847013840B208BD4FF0FF3008BD00BFB5
:108B0000181A0020002070472DE9F04113B3154CCE
:108B100016460F4603EB0208D4F8BC1700238D68F5
:108B20001A4639463046A8470028F5D0D4F8BC3755
:108B3000002BFBD05B6998470028F7D00136B04581
:108B400007F50077E8D1D4F8C037C4F8C43700205F
:108B5000BDE8F081034CD4F8C037C4F8C437002016
:108B6000BDE8F081181A00202DE9F04143B3184CFC
:108B700016460F4603EB020804E0D4F8BC1719B1FF
:108B80004B699847D4F8BC170D6900231A4639463B
:108B90003046A8470028F0D1D4F8BC37002BFBD0D2
:108BA0005B6998470028F7D00136B04507F5007794
:108BB000E8D1D4F8C037C4F8C4370020BDE8F0814C
:108BC000034CD4F8C037C4F8C4370020BDE8F081A6
:108BD000181A002000207047034B93F8EC07003868
:108BE00018BF0120704700BF181A0020826D136A59
:108BF0005B681B78FF2B09D090F8F030013B5BB22B
:108C0000002B80F8F03006DD01207047082380F843
:108C1000F03000207047136A5B68002202201A704F
:108C2000704700BF836D1B6A5B681B78FF2B0AD1FE
:108C300090F9F030002B03F1FF3280F8F020D4BF20
:108C40000220012070470020704700BF30B540F07F
:108C50004003002263F307020B0E63F30F220B0C99
:108C600099B063F317420446080A60F31F620023B9
:108C700002920122CDE90D33CDE91333049306921C
:108C80008DF81C300A938DF8303010928DF85820F2
:108C90008DF84430082215931793164B08930DEB6B
:108CA0000203154D0993062395208DF80C100B93A4
:108CB0000DF107016B4405918DF80D000F9304A988
:108CC0000E4B85F8B82805F50260129310F006FCEB
:108CD000D5F82028136A002BFCD19DF80730FF2B14
:108CE00000D01CB99DF8060019B030BD4FF0FF3020
:108CF000FAE700BFED8B0008181A0020258C000849
:108D0000836D1B6A5B681B78FE2B0CD0FF2B08D190
:108D100090F9F0305A1E002B80F8F02001DD012080
:108D20007047022070470020704700BF30B597B0F1
:108D30001F4C204D08909FED1C7B002308460DF131
:108D400007020821CDE90232CDE906530122CDE91F
:108D50001033CDE9123384F8B8188DF81430099027
:108D60008DF828300B938DF83C301593694402231D
:108D700004F502600E938DED0C7B04928DF850206B
:108D800010F0ACFBD4F82038186A0028FCD19DF80C
:108D90000730FE2B03D0FF2B0CBF0120022017B0A1
:108DA00030BD00BFAFF300800000000000000000F5
:108DB000181A0020018D000830B52C4C9DB00023FE
:108DC00001220020002104F50265CDE90C01CDE966
:108DD0001601CDE912324FF0FD0CC4F8E8378DF8DA
:108DE0003C3010938DF85030159318931A930CA9BA
:108DF0000DF1060328460E928DF864208DF806C00A
:108E0000119310F06BFBD4F82028136A002BFCD1CF
:108E1000174906910DF107000122039002A9284687
:108E2000CDE9073302938DF8143009930B93049224
:108E30008DF8282084F8B82810F050FBD4F820389A
:108E4000186A0028FCD19DF80730FF2B08D0D4F811
:108E5000C037C4F8DC37092384F8EC371DB030BDC7
:108E60000423022084F8EC371DB030BD181A00200E
:108E7000258C0008034B93F8EC07032894BF0020CF
:108E800001207047181A002000487047082200206F
:108E900030B4184B00209C7B14B11D688D4206D065
:108EA00001300B2803F11003F5D130BC7047B2B18B
:108EB000114B03EB40218A4218D0104B93F8E42762
:108EC00012B9012283F8E4270D4B01225A7000F5F4
:108ED000B17003EB001301229A7130BC7047084B4C
:108EE00000F5B17003EB00139A71DEE7022CE4D1B8
:108EF000183BECE718530020183D0020004D0020DF
:108F0000003D002030B41D4C002384F8D03604F519
:108F1000C36004E001330B2B00F1100015D005688D
:108F20008D42F7D190F80EC0BCF1030FF2D1C2B15F
:108F3000134901EB4320824209D1A1F1180203F544
:108F4000B17302EB03120123937130BC704794F8A4
:108F5000E42712B9012284F8E4270A4A012151705A
:108F6000EDE70849D4F8CC2603F5B17301EB031300
:108F7000013204219971C4F8CC26E6E7004D0020A7
:108F8000183D0020003D0020A8B183681BB10E4BA6
:108F900007229A7070470C4A1178D36003294FF06A
:108FA000040014BF4FF480718021C2E901111361E4
:108FB000137590707047044A02F580510123537075
:108FC00081F8E437704700BF003D002010B5164C13
:108FD000D4F81C386BB11A689B88116994F8192869
:108FE0000B4022B12BB1002384F8EC3710BD002BCD
:108FF000F9D094F8EC37032B0FD894F8E03701330D
:10900000DBB2072B84F8E037EDD8D4F8C037C4F8CA
:10901000DC37012384F8EC3710BD044810F03AFB2C
:10902000A4F82408E9E700BF181A0020801A0600F7
:1090300038B5274D95F8E42495F8E5349A4241D1A6
:10904000244A92F80406F0B1234B92F80846D5F86A
:10905000BC2800EB400003EBC000B4B140F20D3C73
:1090600000E01A6899689C894C600C6844F001041F
:109070000C60A2F848C09189183389B241F480711C
:1090800083429181EDD138BD1A68118821F08001A9
:1090900009041833090C118033F8141CD1621188AB
:1090A00089B241F0800111805462B2F80CC033F8EB
:1090B000041C41EA0C0189B28342918123F8044CDB
:1090C000E2D138BD5DF0E4FD0028B9D138BD00BF64
:1090D000181A002004000010D4220020F8B51D4BFF
:1090E00093F8E42493F8E5349A422ED11A4F7D6820
:1090F000002D11DD3846002410F8086B16B1037EF0
:10910000012B1CD002691368013443F00103AC4207
:1091100000F580701360F1D111F06CFED7F80C46A9
:10912000002C0BDD0D4A02EBC4041168938888897A
:10913000083203439BB294428B81F6D1F8BD0023E1
:1091400080F8F030FFF7D2FADCE75DF0A1FD0028EF
:10915000CCD1F8BD181A002004000010140600102D
:109160002DE9F04F037D02681F2B83B0044609D917
:109170005068A3F120052021A940014207D103B086
:10918000BDE8F08F1068202199400142F7D049498D
:10919000D4F81880484F4868484D8C2101FB08716D
:1091A000C5F8300695F808C6D1F88C000668BCF101
:1091B000000F18D1D1F80401B1F890C0016821F076
:1091C00001010160B18989B221EA0C01B1812978DC
:1091D000B9B91F2B61D9A3F1200120238B40D360A3
:1091E00003B0BDE8F08F0069016821F00101016062
:1091F000B18921F480710904090CB1812978002911
:10920000E7D04FF08C0909FB08F907EB0903DFF8F9
:10921000B0B0D3F804211046CDE9002356F0D8F8B9
:10922000019B012283F8D820D5F8383609F1180AB5
:10923000DA44002B38D033889BB243F0800333806C
:1092400009F174094FF0FF330BEB0901F36230466B
:1092500056F032FB8C2303FB08775146002300981D
:10926000C7F8A83056F04AF9D7F8043116225A60E8
:109270001A6842F001021A60D7F88C20B7F89030D3
:10928000126891890B439BB293810A49237D4968F7
:109290002268C5F834161F2B9DD8202101FA03F34C
:1092A000936003B0BDE8F08F11F0A4FDC5F8380657
:1092B000C1E700BF001000E0181A002004000010F1
:1092C0009C1A00202DE9F041324C0546884617468D
:1092D0001E4694F8EC0704280BD0082807D1D4F8D0
:1092E000E437AB4241D0FFF767FD0228F1D00120FF
:1092F00037E094F8E237B3BB69021820FFF7A6FC09
:10930000C0B2A0BB94F8EC37082B2ED0FE23D4F8C3
:10931000202884F87C39117B1F4BC3F85C8051B145
:10932000526942B194F8A828002A14BF4FF4007281
:109330004FF4807201E04FF48072184818495A6661
:1093400010F0CCF801220623C4F8C887C4F8CC5723
:10935000C4F8D477C4F8D86784F8D02784F8EC37F9
:109360000020BDE8F0812946C7E7FC23CFE7D4F809
:109370002028136A002BFCD10A2011F0A9FDD4F893
:10938000283813B11A689B881383FFF71FFE032048
:10939000E7E700BF181A00208801002038220020CB
:1093A000BC01002070B5234E96F8EC37042B05461F
:1093B0000C4609D0082B22D1D6F8E43783421CD0C2
:1093C000FFF7FAFC02281AD100213720FFF73EFCF4
:1093D00021461720FFF73AFCC0B2C0B996F8E23731
:1093E0007BB969021920FFF731FC80B9082386F8A0
:1093F000EC37C6F8E847C6F8E457022070BD0120F4
:1094000070BD29461920FFF721FC0028EED0D6F8C0
:109410002028136A002BFCD10A2011F059FDD6F840
:10942000283813B11A689B881383FFF7CFFD0320F8
:1094300070BD00BF181A00202DE9F041234C94F8AC
:10944000ECC7BCF1040F0746884616461D4609D0F6
:10945000BCF1080F02D00020BDE8F081FFF7ACFCA2
:109460000228F8D194F8E237BBB139461120FFF752
:10947000EDFBC0B2C0B90522D4F8C03784F8EC27A0
:10948000C4F8C887C4F8CC77C4F8D467C4F8D857F0
:10949000C4F8DC370120BDE8F08179021120FFF724
:1094A000D5FBC0B20028E6D0D4F82028136A002BE0
:1094B000FCD10A2011F00CFDD4F82838002BCAD0BA
:1094C0001A689B8813830020C6E700BF181A002083
:1094D0002DE9F84311F08EFC204F214E7C680546A3
:1094E0004FF00008002C2DDD00231A4607EB032166
:1094F000013391F8F9109C4242EA0102F6D142EAA6
:1095000008095FFA89F990467368C3F30803B3B991
:10951000EFF311839BB911F0BBFC401BB0F5FA6F60
:1095200002DCB8F1000FDDD1B9F1000F04D00D4B12
:1095300093F87D29542A09D04846BDE8F88311F0F4
:109540002DFCEAE7C1464FF00008DDE7B3F88429B7
:109550000132A3F884294846BDE8F88304000010CE
:1095600000ED00E0181A0020AD4B1B780BB901206C
:1095700070472DE9F04FDFF8BCB2AA49DBF8C027ED
:10958000A94BA1FB02125209A3FB0213DB08A44959
:1095900087B003EB8303A2EB4303D1F83C2604928C
:1095A00001F5C864DAB2059204EB8307002201F5E5
:1095B0001263019301F5816A9046049B984580F2FD
:1095C0000D81DAF81820DAF80490D2F8E830D2F8F1
:1095D000EC60029311F00EFC029B03904FEA890CA1
:1095E0009BF87D999BF890090CF1085C06F180616D
:1095F0000CEB431C3939B9F1540F0CEB81110CEB16
:10960000801301D1ABF88609994240F27D811A6836
:10961000002A00F071811A6C002A00F08381D3F8CF
:109620008020002A00F08081D3F8C02003F58073E9
:10963000002AE9D1A3EB0C0C99424FEAAC1240F29C
:109640006381B11A45294FF0000628BF45213046F5
:10965000B64603EB81111D4616460DE01A6C002A32
:1096600040F0EA80D3F88020002A40F01581D3F83A
:10967000C02003F580732AB9994206D91A68002AD6
:10968000ECD04033994200F2DB8032467646112E10
:1096900040F23E81DEF1150100F13A81634B1D4637
:1096A000D3F884309A4238BF2B46039D38BFC3F8A5
:1096B0008420DBF89439EA1A002A18DB03F5F42336
:1096C00003F590739D4284BF2B460533CBF8943944
:1096D000564B564AD3F88430052B86BF053BDBB288
:1096E00000238BF890394FF0FF33C2F8843031B14A
:1096F00000FA01F1C6F114060120B04008434C4EB7
:10970000C0F3C43306EB8303D3F8481400F01F03FF
:1097100006EB8303D3F8482442EA0132C0F3441134
:1097200006EB8101C0F3842306EB8303D1F84814D0
:10973000D3F8483442EA011141EA032181EA1123B6
:1097400083EA131303F00F02354BD3F828390F2A9D
:1097500003F1010340F0BD80B1F5803F80F0B98096
:10976000B9F1540F4FEA111140D02D4AB1F5606F95
:10977000C2F8283945D0019B998194F85830059852
:1097800083420CD0BA6823689B1A23603A6B6368E3
:109790009B1A63600023BB603B6384F85800236816
:1097A00001332360BB680133BB604FF6FF739942FE
:1097B00005D16368013363603B6B01333B63019BFD
:1097C00008F101081433B8F1080F04F15C0407F143
:1097D0005C0701930AF1200A7FF4EFAE104A0123DF
:1097E000012082F8243A07B0BDE8F08FBBF8802949
:1097F0000132ABF880290A4AB1F5606FC2F8283906
:10980000B9D19BF8E53403EB43030BEBC3034344AB
:1098100093F8F5340D2BAED1019A80239377ACE702
:10982000040000101F85EB51CDCCCCCC880100206A
:109830008CA30608181A0020803399427FF625AFC2
:10984000A3EB050C3C4A4FEAAC1C0CF1010C82FB6B
:109850000C52A2EBEC72012AB8BF012290404FF0EB
:10986000010C9644013A0CFA02F210439C46DCF8D3
:1098700000209AB1DCF84020002A57D0DCF8802084
:10988000002A56D0DCF8C0200CF5807C42B161453E
:10989000EDD81D466346EFE6C033F3E60CF1400C0D
:1098A0006145F6D9ACEB03029211234B013283FBE5
:1098B0000253A3EBE273012BB8BF012398409E44EF
:1098C0000122013B02FA03F3184363461D46634637
:1098D000D2E6B9F1540F04D1BBF880290132ABF8BC
:1098E0008029164AC2F82839D2F824390133C2F83F
:1098F00024394FF6FF7140E74033A3EB0C0C99423B
:109900004FEAAC123FF69DAE10B101388BF89009CA
:10991000B9F1540F7FF453AFBBF882390133ABF880
:1099200082394CE7803385E6C03383E60CF1800C46
:10993000B6E70CF1C00CB3E75655555504000010BE
:1099400010B504465DF0B2FE81B22046BDE810407D
:10995000FEF72CBE38B50B4D00EB400005F244532A
:1099600003EBC00393ED027AD3ED037AE7EE007ABE
:10997000C4002544B0EE670A5DF098FED5F8443582
:10998000186038BD04000010F8B50C4B1D685A690A
:10999000154005405D617DB1094F0126B5FA85F49A
:1099A000C4F11F0407EB840306FA04F4D3F8980902
:1099B00003689847A543F1D1F8BD00BF003C0140C2
:1099C000181A00202DE9F843038AB0F80C801FFA1A
:1099D00088F818EA030829D005460E464FF00047DC
:1099E000B8FA88F327FA03F2D24391B21B3B2982DB
:1099F00008EA0208042B16D8DFE803F0352C231AF6
:109A00000300B36A002B37D003F1FF3900231FFA9C
:109A100089F9B362746A34B123682046494698478D
:109A20006468002CF8D1B8F1000FD9D1BDE8F883F3
:109A30007068696B036889B29847B8F1000FCFD19D
:109A4000F4E7B068A96B036889B29847B8F1000FD2
:109A5000C6D1EBE7F068E96B036889B29847B8F1C3
:109A6000000FBDD1E2E73069296C036889B29847DD
:109A7000B8F1000FB4D1D9E7EB6A1FFA83F9C9E74F
:109A80000A4608B5054920B9054855F0C3FF034803
:109A900008BD044855F0BEFF004808BDF023002073
:109AA000002407082824070810B5044C04480A4677
:109AB000214655F0AFFF204610BD00BFF023002027
:109AC0005024070810B5044C04480A46214655F0B6
:109AD000A1FF204610BD00BFF0230020642407082A
:109AE00010B5044C04480A46214655F093FF204621
:109AF00010BD00BFF02300207024070810B50F4CE4
:109B0000D4F8D82A94F8D73A2AB103F001039188FF
:109B1000126883B9118359F0BFFBD4F8BC37002B0E
:109B2000FBD05B6998470028F7D0D4F8C037C4F859
:109B3000C437002010BD5183EDE700BF181A002084
:109B4000817899B10C48D0F8E43A102B0FD003EB90
:109B5000430202444FF0200C013382F8E81A01213D
:109B600082F8E9CA82F8EA1AC0F8E43A7047052197
:109B7000002011F051BC00BF181A0020F0B5A34C12
:109B800094F8186893B0002E00F0EB8194F8EC374D
:109B90005A1E082A00F26E81DFE812F03A007400C3
:109BA000C1006C013C017F011B006C01090059F0F0
:109BB00043FB002840F0B782D4F8DC37D4F8C02744
:109BC000FA33934280F05381FFF700FA94F8EC37B0
:109BD000DEE759F031FB0028EED0D4F8E827002367
:109BE000012A84F8E03740F2B082D4F8E417013A51
:109BF00001310823C4F8E827C4F8E41784F8EC37E7
:109C0000A3F10806B6FA86F67609304613B0F0BD21
:109C100000210846FFF71AF8D4F82028C5B2136AC5
:109C2000002BFCD10A2011F053F9D4F8283813B1D5
:109C30001A689B881383012D40F01981002740F298
:109C4000AB11082084F8E177FFF700F8C0B20528CF
:109C500000F0D281012800F0B081D4F82028136AE6
:109C6000002BFCD10A2011F033F9D4F8283813B1B5
:109C70001A689B88138394F8E137002BBED0022327
:109C800084F8EC3794F8E157A5F10205B5FA85F5AB
:109C90006D090021AD073720FEF7D8FF294629209E
:109CA000FEF7D4FFD4F82028C5B2136A002BFCD1EC
:109CB0000A2011F00DF9D4F8283813B11A689B88DE
:109CC0001383002D40F0D38094F8E137022B00F08D
:109CD000DC810021092084F8E257FEF7B7FF002855
:109CE00000F08F810025D4F82028136A002BFCD1C6
:109CF0000A2011F0EDF8D4F8283813B11A689B88BF
:109D00001383002D00F0B38000210A20FEF79EFF90
:109D1000C0B2002840F0A881032384F8EC3710215A
:109D200003A8FFF703F8002840F0A1809DF80C304D
:109D3000BDF80D209DF80F1063F307009DF8193052
:109D400052BA1B01A4F8F4279DF81A20DBB243EAAB
:109D5000121303F5FA63A4F8023802F00F0384F833
:109D600004389DF81030D4F8202861F30F2063F3F5
:109D70001740BDF812109DF81130A4F8FA17DDF85D
:109D8000151063F31F609DF81430C4F8F60709BA84
:109D9000C4F8FC17190903F00F0384F8001884F8BD
:109DA0000138136A002BFCD10A2011F091F8D4F885
:109DB000283813B11A689B88138394F8E237B3B933
:109DC0004FF400711020FEF741FFD4F82028C5B2EF
:109DD000136A002BFCD10A2011F07AF8D4F8283845
:109DE00013B11A689B881383002D7FF4EDAE0848E9
:109DF0000FF050FC00220423A4F824083046C4F8D5
:109E0000E82784F8EC3713B0F0BD00BF181A002023
:109E100040787D01D4F8C8074FF40071FEF786FF43
:109E2000012800F0A380022800F0A880F8B9D4F837
:109E30002028136A002BFCD10A2011F049F8D4F82D
:109E4000283813B11A689B881383D4F8D457042395
:109E5000002084F8EC3784F8E007002D3FF4D5AEFD
:109E6000D4F8D837D4F8C827D4F8CC17A84794F832
:109E7000EC375A1ED2B2022A0BD8D4F8C027D4F835
:109E8000DC17521AC82A7FF6BBAEFFF79FF894F88A
:109E9000EC37042B7FF4B4AEB7E6D4F82028117B5E
:109EA000136A002946D05269002A43D094F8A828A2
:109EB000002A3FD0B3FA83F35B09002BD7D002A965
:109EC000002303910221CDE904310DF107010122A4
:109ED0000991BE48ADF8083003A9CDE90733CDE9B3
:109EE0000C33CDE90E338DF818308DF82C301193EA
:109EF0000A928DF840200FF0F1FAD4F820381D6A4C
:109F0000002DFCD19DF8073003F01F03052B00F056
:109F1000F280FFF75BF8D4F8D477002F3FF436AE29
:109F2000D4F8D837D4F8CC172A460120B84794F88B
:109F3000EC372DE6D4F8C83794F8D017A34803EBD4
:109F400001214FF4807259F031F994F8D037013380
:109F5000DBB284F8D037A3F10203B3FA83F35B09D1
:109F6000ABE7304684F8EC6713B0F0BDD4F8DC37CB
:109F7000D4F8C02764339342BFF479AFD4F82028D3
:109F8000136A002BFCD10A2010F0A2FFD4F8283865
:109F900013B11A689B881383FFF718F8D4F8D457C5
:109FA000002D3FF4F3AD0022D4F8D837D4F8CC1705
:109FB0001046A84794F8EC37EAE502ABCDE9037305
:109FC00082488DF81870042303A9CDE90777CDE9FD
:109FD000097705938DF82C500C970FF07FFAD4F881
:109FE0002028136A002BFCD19DF80B30AB2B04BF4B
:109FF000022384F8E13732E6D4F8202884F8E157C8
:10A000002DE673481021FEF791FE00287FF46AAE1A
:10A0100094F8173813F001033FF464AE94F808285D
:10A02000921100F0A780012A7FF45CAE94F80F280B
:10A03000684F9200D2B216210225C5F108038B4267
:10A0400028BF0B46C3F108052A419840C91A40EAC7
:10A0500002004FF0000517F8012FEED10130830206
:10A06000C4F8F03735463EE6D4F82028136A002BB2
:10A07000FCD10A2010F02CFFD4F82838002B3FF434
:10A08000A3AD1A689B8813839EE529463A20FEF704
:10A09000DDFD02ABCDE9035304230593C7B20123D1
:10A0A0004A488DF82C3003A9CDE90755CDE909556B
:10A0B0008DF818500C950FF011FAD4F820381A6A60
:10A0C000002AFCD187B91A6A002AFCD10A2010F0B4
:10A0D000FFFED4F8283813B11A689B881383029DB9
:10A0E0002DBAC5F38075F4E51A6A002AC1D01A6A40
:10A0F000002AF9D1BDE7D4F8D457D4F8C027C4F862
:10A10000DC27072384F8EC37002D3FF479ADD4F831
:10A11000D837D4F8C827D4F8CC170120A84794F82A
:10A12000EC375A1EA6E6D4F82028136A002BFCD17F
:10A130000A2010F0CDFED4F8283813B11A689B8895
:10A140001383042384F8EC375FE566D00423D4F846
:10A15000202884F8EC37136A002BFCD10A2010F079
:10A16000B7FED4F82838002B3FF481AE1A689B88DC
:10A1700013837CE694F80D08DFF85CC0114600F00C
:10A180000F0294F8110880019340C0B203250627FE
:10A19000C7F10802AA4228BF2A46C2F1080738417F
:10A1A0009140AD1A41EA00014FF000071CF8010F81
:10A1B000EED194F80EC8DFF824E04FEA8C1C02318F
:10A1C0005FFA8CFC0C2006220BE000BF3822002036
:10A1D00020220020272200202922002026220020E1
:10A1E0000022C2F10802824228BF0246C2F10807DB
:10A1F0004CFA07F79540801A1EF801CF45EA07058B
:10A20000EED1013505FA01F2D817A2FB033102FBAA
:10A2100000125B0A43EAC25322E7FEF7CDFD022893
:10A220007FF425AED4F820381A6A002AFCD195E7CD
:10A2300010B42A492A4A91F804367BB3D2F8BC48B4
:10A24000A04239D0012B29D0D2F8D448844239D049
:10A25000022B23D0D2F8EC48A04235D0032B1DD0DE
:10A26000D2F80449A04231D0042B17D0D2F81C49AF
:10A27000A0422DD0052B11D0D2F83449A04229D0CC
:10A28000062B0BD0D2F84C49A04225D0072B05D085
:10A29000D2F86449844208BF07230ED003F1010CB1
:10A2A00081F804C603EB430102EBC1025DF8044BE5
:10A2B000C2F8BC08184670470023DBB218465DF8A8
:10A2C000044B70470123F8E70223F6E70323F4E782
:10A2D0000423F2E70523F0E70623EEE7040000106D
:10A2E000181A002038B5414C8C2303FB004393F827
:10A2F000933003B938BD94F8E4C494F8E5349C4530
:10A300000ED003EB430204EBC20292F8E8E40EF134
:10A31000FF35012D4FEA430246D9BEF1030F3ED06F
:10A320008C2202FB0042A2F88410EFF311819023EB
:10A3300083F31288B2F8845092F8863043EA4503DA
:10A340000025C9B29BB282F8865081F31188284952
:10A350001A090D7882EA13225A4005B1D2431B0133
:10A360009BB202F00F021A4391F80836D1F8285A2E
:10A370004BBB8C2303FB00440121D4F80C01A847FC
:10A38000D4F80811B4F890508A8AD4F804312A43DA
:10A390008A8258601A6842F001021A6038BD5D1C5A
:10A3A00005F003056545BBD01A4404EBC202024424
:10A3B00092F8F5140029B3D08C2303FB004301224B
:10A3C00083F88620ACE78C2303FB0044D4F88C3060
:10A3D000D4F808115B79086903F0FC0318440421E0
:10A3E000A847D4F808318000988138BD181A002099
:10A3F0000400001043680B4A23F0407323F4807379
:10A4000043F48073436083681A4042F00202826022
:10A41000C36A0139C9B223F4700343EA0153C3622A
:10A42000704700BFFDF7FFC0704700BF0020FDF779
:10A43000F9BD00BF0120FDF7F5BD00BF0220FDF70B
:10A44000F1BD00BF10B1036882881A83704700BF56
:10A4500030B1036882881B691A4214BF01200020B2
:10A46000704700BF10B1036882885A83704700BFED
:10A4700010B404698269E4684168146000234024D0
:10A48000C2E90234446993630C31C2E90433C2E97E
:10A490000633C2E90833C2E90A33C2E90C3351601A
:10A4A00084B1C269C2E90233C2E90433C2E90633A6
:10A4B000C2E90833C2E90A33C2E90C33E0689363A6
:10A4C000C2E900015DF8044B704700BFD0E90013FA
:10A4D00000221A60037D1F2B07D9203B202202FA9D
:10A4E00003F343F01803CB607047202202FA03F312
:10A4F00043F018038B607047F8B50468D4E904236F
:10A500005568117D1768002B40D01F295E6898613F
:10A510002CD820228A4042F01802BA601A7D1968AD
:10A520001F2A2DD9203A2023934043F01803CB60F3
:10A5300000232B6033603368A16943F0100333605C
:10A54000284654F0DBFFE169304654F0D7FF2B6812
:10A55000626843F001032B60336843F0010333600A
:10A5600093889BB243F003039380F8BD20392022E7
:10A570008A4042F01802FA601A7D19681F2AD1D861
:10A580002023934043F018038B60D1E71F2990618B
:10A5900019D820238B4043F01803BB6000232B60A5
:10A5A0002B68A16943F010032B60284654F0A6FFE6
:10A5B0002B68626843F001032B6093889BB243F0E1
:10A5C00002039380F8BD203920238B4043F0180309
:10A5D000FB60E3E72DE9F0477F4E07464FF0010AA5
:10A5E0003C6897F888806368B8881A8884F824A043
:10A5F00022F040021204120C1A802289824221D0D9
:10A600001A88764922F0380212048B424FEA12422D
:10A6100000F0BF8001F580618B4200F0BA800146F6
:10A62000B1F5807FA8BF4FF480710229B8BF022125
:10A6300091FAA1F1B1FA81F1013942EAC10292B273
:10A640001A802081397BA27A8A420CD01A8822F0A3
:10A6500003021204120C1A801A8892B2002900F028
:10A6600095801A80A1721A8894F80C9092B242F0E8
:10A6700040021A80226A9168002900F0A4804FF0FD
:10A68000000C1432E64652F8100C8E4400EA060123
:10A6900020B1B1F1805F25D0616919B352F8141C63
:10A6A000143201EA060011B1B0F1805F1AD052F8FD
:10A6B0000C1C0CF1010C0029E5D1B9F1000F11D0EF
:10A6C000B8F1000F0ED0BCF1010F6FD8BEF1070F2B
:10A6D0006CD80CEB8C0C4FEA8C01226A0A44127B7A
:10A6E000002A63D0226A92684FF00008002A52D0F4
:10A6F000B8F1000F02D098F80C2022B1BA6812B15C
:10A70000116892884A83226A1568226A5168226A0F
:10A710009268501E9AB12DB32A4612F801EB1546E5
:10A720001A899207FCD5A3F80CE01A89D207FCD548
:10A730009A8992B209B101F8012B0138EBD2236A50
:10A740001B7BE3B9236A1B697BB1236AD7F89400AA
:10A750001B69984701280DD0022806D100232362E7
:10A76000BDE8F0874FF0FF0EDAE7D4F82080236AC7
:10A7700014332362236A9B686BB16368B8E7BB68D4
:10A78000002BDFD01A689B881383DBE742F00302BB
:10A7900067E7410844E7236A1B68DBB1236AD3E912
:10A7A000007222620022C3E9002219E73868002102
:10A7B0005CF01EFEBB6813B11A689B885383384651
:10A7C000BDE8F04798E6B9F1000F8BD0B8F1000F63
:10A7D00083D187E72362C3E70000FFFF0038004012
:10A7E00038B52C4AD0F8E0305268D0F8D81004467A
:10A7F00073B1501A83420BDC94F8D030C4F8D820DF
:10A80000012B10D0D4F8D4300133C4F8D43038BD83
:10A81000D4F8E430C4F8D8200B44C4F8DC3094F801
:10A82000D030012BEED16168201D04F1E805EFF373
:10A83000118C102383F3128863681B6A0BB3D4F85E
:10A84000F0302A461BB1D3691432002BFBD10B6ABE
:10A850006BB1996839B9934209D0196829B15B681D
:10A8600099680029F7D01433F3E7C3E900055FFACC
:10A870008CFC8CF31188D4F8D4300133C4F8D43074
:10A8800038BD0D625FFA8CFC8CF31188FFF7A2FED5
:10A89000B8E700BF001000E02DE9F041826992F8AE
:10A8A000DC30012B8AB005464CD0023B012B54D83A
:10A8B00092F84C31D2F89C202E4C63F07F03137039
:10A8C0008769D7F8A030D7F8108003F1010E0FCCBC
:10A8D000EC46ACE80F00D7F89C30CDE9003E0FCC39
:10A8E000ACE80F0094E8030007F110068CE80300C1
:10A8F000EFF31180102383F312883B691B6A002B4E
:10A900002FD0029B6A461BB1D3691432002BFBD1B6
:10A91000D8F8203073B1996839B99A420AD01968C9
:10A9200029B15B6899680029F7D01433F3E71E60FA
:10A93000C3F804D0C0B280F31188AA6911690B6A08
:10A94000002BFCD1D2F8A0305A8852BAEA819A88FA
:10A9500052BA2A82DB885BBA6B8201200AB0BDE85A
:10A96000F081C8F820D0C0B280F311883046FFF7DC
:10A9700031FEE2E754A806082DE9F04190F8DC30FA
:10A98000D0F8A050012B8AB0044673D041D9023BC5
:10A99000012B6BD890F84D31D0F89C205E4E63F0BF
:10A9A0007F031370D0F8A030D0F8108003F1010EAF
:10A9B00000F110070FCEEC46ACE80F00D4F89C3045
:10A9C000CDE9003E0FCEACE80F0096E803008CE81E
:10A9D0000300EFF31180102383F3128823691B6AAD
:10A9E000002B00F08F80029B6A461BB1D3691432A2
:10A9F000002BFBD1D8F820302BB3996839B993429A
:10AA000021D01968E1B15B6899680029F7D0143347
:10AA1000F3E7D0F89C304FF0FF321A605A609A602A
:10AA2000DA60D0F8E0300522B3F57A7FC0F8F02084
:10AA30003BD8032380F8DC3001200AB0BDE8F08168
:10AA40001F60C3F804D0C0B280F311882269136A72
:10AA5000002BFCD16B885BBAA4F8D030AB885BBA12
:10AA6000A4F8D230EB885BBAA4F8D43001200AB045
:10AA7000BDE8F08190F84C2190F84D319B1A5B10A5
:10AA80000133DBB205EB430235F813305BBAA0F8B3
:10AA9000D03053885BBAA0F8D23093885BBAA0F864
:10AAA000D43001200AB0BDE8F08103691A7B2AB3D3
:10AAB0005B691BB390F8983003B390F84C31D0F831
:10AAC0009C20C4F8A40063F07F03137090F84C112D
:10AAD00090F84D31D0F8A0201048C4F804015B1A5A
:10AAE00007330121C4F8FC30D4F89C3084F80011FD
:10AAF0000A44C4E93D3284F8DC10B7E7022384F845
:10AB0000DC30B3E7C8F820D0C0B280F311883846F3
:10AB1000FFF760FD9AE700BF54A80608018000080F
:10AB200008B51D200FF07AF808B183794BB11E20CB
:10AB30000FF074F808B1837903B108BD5523C380C1
:10AB400008BD5523C380F2E7D3B2012B24D870B5DA
:10AB500002EB4202114C4FEA820E23460EF1080529
:10AB6000002204E00132152A03F11C0312D093F8ED
:10AB700000C08445F6D193F801C08C45F2D15E59EE
:10AB8000002EEFD0C2EBC2020EF1040303EB8203EE
:10AB9000E01870BD002070BD002070477CA806083A
:10ABA00010B40C4C002304F6183C01E0152B0CD01B
:10ABB00003EB430201331CF802108142F6D1144426
:10ABC00094F91A0B5DF8044B70474FF0FF305DF8B5
:10ABD000044B7047181A0020D3B2022B22D870B54C
:10ABE00002EB4202104C4FEA820E23460EF10C0596
:10ABF000002204E00132172A03F12C0310D01E6852
:10AC0000B042F7D193F804C08C45F3D15E59002EC1
:10AC1000F0D02C210EF1080301FB0233E01870BDC7
:10AC2000002070BD002070478CA30608002839D092
:10AC300030B51D4D90F804C0002305F6183401E02E
:10AC4000152B2DD003EB43020133A15C6145F7D1F5
:10AC50001544046895F91A3B90F805E0DAB2022A27
:10AC60001ED803EB430311484FEA830C0CF10C058B
:10AC70000346002204E00132172A03F12C030FD00F
:10AC800019688C42F7D119797145F4D159590029C5
:10AC9000F1D02C210CF1080301FB0233184430BD24
:10ACA000002030BD704700BF181A00208CA3060892
:10ACB0000348D0F898300BB188301847704700BF70
:10ACC000880100200348D0F8BC300BB1AC301847E5
:10ACD000704700BF880100200348D0F8E0300BB176
:10ACE000D0301847704700BF880100200348D0F8D3
:10ACF00004310BB1F4301847704700BF88010020C1
:10AD00000348D0F8283113B100F58C70184770470C
:10AD1000880100200348D0F84C3113B100F59E7033
:10AD200018477047880100200348D0F8703113B1EC
:10AD300000F5B07018477047880100200348D0F82C
:10AD4000943113B100F5C270184770478801002094
:10AD50000348D0F8B83113B100F5D47018477047E4
:10AD6000880100200348D0F8DC3113B100F5E6700B
:10AD700018477047880100200348D0F8003213B10B
:10AD800000F5F87018477047880100200348D0F894
:10AD9000243213B100F50570184770478801002070
:10ADA0000348D0F8483213B100F50E7018477047C9
:10ADB000880100200348D0F86C3213B100F51770F9
:10ADC00018477047880100200348D0F8903213B12B
:10ADD00000F5207018477047880100200348D0F81C
:10ADE000B43213B100F5297018477047880100206C
:10ADF000094B0A4A013800EBC00003EB8003084806
:10AE0000D3F88830116B834214BF4FF480034FF4A2
:10AE100000130B4313637047880100200038024081
:10AE20000060024070B501383C4C3D4D00EBC00C59
:10AE300004EB8C0C9646DCF888603A4AAE4214BFAC
:10AE40004FF480054FF40015166B35431563CCF8AD
:10AE50009810CCF8A0303449DCF88C308B424FEAA3
:10AE6000C0023ED001F580618B423AD0A1F57A71E3
:10AE70008B4247D001F580618B4243D0A1F57A71B6
:10AE80008B4241D001F580618B423DD0A1F57A71B2
:10AE90008B4235D001F580618B4231D0A1F57A71BA
:10AEA0008B4233D001F580618B422FD0A1F57A71AE
:10AEB0008B422DD001F580618B4229D0A1F57A71AA
:10AEC0008B4227D001F580618B4223D0A1F57A71A6
:10AED0008B4221D0154D01F580618B4218BF0025B2
:10AEE00000E0134D131804EB8303CEF38711C3F86E
:10AEF000A85093F89D00BDE87040002258F004BAB5
:10AF00000C4DEFE70C4DEDE70C4DEBE70C4DE9E791
:10AF10000C4DE7E70C4DE5E7044DE3E78801002021
:10AF200000600240003802401060024000800028AB
:10AF30002080001000800018008800100080201081
:10AF40002080002000880020008020200C4A0D492D
:10AF500003469342D1F8B80710D0A2F5806293421D
:10AF60000CD002F58042934208D002F580629342F1
:10AF700004D002F58062934218BF4008704700BFBA
:10AF800000040140181A0020800AA0F58010522801
:10AF900008D8054B034493F8F4330D2B02D8034A29
:10AFA000D0567047002070478CA3060880240708FD
:10AFB00009494B6C10B5094C43F480434B64402263
:10AFC000002104F698105DF0C7FA4FF0FF33C4F883
:10AFD000583BC4F85B3B10BD00380240181A0020F3
:10AFE0000120FEF7D1BC00BF0220FEF7CDBC00BFA0
:10AFF0000420FEF7C9BC00BF0820FEF7C5BC00BF97
:10B000001020FEF7C1BC00BF4FF47870FEF7BCBC47
:10B010004FF47C40FEF7B8BC30B50C4683B0054613
:10B02000D8B1036803F13F4303F57E039B0A0C4A42
:10B03000134493F83C0758F033FAC4F34112C4F3B5
:10B040000013CDE90032C4F38103A988286804F015
:10B0500003025AF003FE03B030BD4FF0FF33E6E7C2
:10B060008CA3060800B1D7E7704700BF2DE9F8436D
:10B07000CC781CB900273846BDE8F88300F11009E8
:10B080000D460646897848460EF02EFB07460028F6
:10B09000F0D020460EF0C2FDB0612B78013304469B
:10B0A000DBB210B1C3712223837120460921FFF75F
:10B0B000D9FF2046FFF7C6F9DFF86480D8F8C0371B
:10B0C000632BFBD915480EF0E5FAB082484650F0E4
:10B0D000B1F90446D8B9E8780EF0A0FDD8F8E47AC2
:10B0E000002F0646C6DDDFF83C8002E00134A742AF
:10B0F000C0D004EB440518F805000EF08FFD864221
:10B10000F4D1214608EB05000EF0CCFDB2E7306922
:10B1100086F8D8405BF0A8FDADE700BF40420F00C5
:10B12000181A00200025002038B50A4BD3F8603BE0
:10B1300003440546987D0EF071FD044648B12E2368
:10B1400001358371C5710121FFF78CFF2368A28847
:10B150005A8338BD181A002070B50F4CD4F83C66DD
:10B16000002E16DD04F58164002504E00135B542AA
:10B1700004F120040DD0237F002BF7D0E0680028D5
:10B18000F4D0217D0135FFF747FFB54204F12004DB
:10B19000F1D1012070BD00BF04000010F8B5037D9F
:10B1A000856902681F2B044648D95068203B20213E
:10B1B0009940084234D0D16010219940D160516843
:10B1C000D940CE077CD4EFF31183502282F312884A
:10B1D0002A6C1168C90754D4516889B279B9D5E984
:10B1E000096086424AD0AF690744D76080B26CD903
:10B1F000301A80B250600021AE6285F86410116888
:10B2000041F00101DBB2116083F3118895F86430DD
:10B21000002B3DD1237D22681F2B194614D9203BDA
:10B22000506808219940084200D0D160506804213C
:10B2300001FA03F3184200D0D360F8BD166820204D
:10B24000984006420DD11946106808238B401842D9
:10B2500000D09360106804238B401842EDD09360B7
:10B26000F8BD10219940906091601168D940C807DD
:10B27000A9D5012101FA03F39360A4E7012285F81F
:10B280006420DBB283F3118895F86430002BC1D0C1
:10B2900095F87C30002BBDD195F871000EF0BEFC06
:10B2A0002A6E938923F008031B0401211B0C938150
:10B2B00085F87C100028ADD02021FFF7ADFEA9E76E
:10B2C000012101FA03F3D3607DE70E462969091ACB
:10B2D00089B251608FE700BFF0B503792E4C002B87
:10B2E00014BF012200228BB084F8182803D184F8FF
:10B2F000EC370BB0F0BD054604F5026790F900107D
:10B3000038460EF0F1F9AE78002E39D1234B24489F
:10B31000C4F8B438C4F828680EF0BCF9A4F82408BE
:10B320004FF47A700FF0F4FFD4F8283813B11A688C
:10B330009B8813831B4D0FCDEC46ACE80F000FCD5F
:10B34000ACE80F0095E803008CE803006946384636
:10B350000EF0C4F8D4F82028136A002BFCD11EB1DB
:10B3600009213046FFF758FED4F8C017C4F8DC179F
:10B370000122002384F8EC2784F8E0370BB0F0BDFD
:10B3800030460EF04BFC06460028BFD01E23C3807B
:10B390002821FFF741FEB9E7181A0020E02100201C
:10B3A000801A0600D0AA0608F0B5054683B0A0B3FF
:10B3B00007681D4B144607F13F4202F57E0203EB7E
:10B3C00092230E4693F83C0758F06AF8A988B1FA20
:10B3D00081F3C3F11F03C3F3CC0207EB820203F036
:10B3E0000703156A4FF00F0C9B009C400CFA03F307
:10B3F00025EA03031362136A1C431462C6F30013A5
:10B40000C6F34112CDE900323846C6F3810306F097
:10B4100003025AF023FC03B0F0BD034B93F83B0743
:10B4200058F03EF82B68FFDE8CA3060800B1BBE79E
:10B43000704700BF2DE9F047684E06EB0013D3F8C4
:10B44000644B002C76D093F86C7B05464FEA0018CD
:10B45000384658F025F807F01F027F090123032F13
:10B4600003FA02F372D0042F6BD0022F64D006EBE4
:10B470000803013593F8680B0EF0D0FBEDB282465D
:10B4800010B11223C571837106EB080393F8690BA1
:10B490000EF0C4FB814610B11323C571837106EB16
:10B4A000080393F86A0B0EF0B9FB074610B114239A
:10B4B000C571837106EB0803504693F86B5B4A2114
:10B4C0002A46FFF7B3FF2A4648462A21FFF7AEFF78
:10B4D0002A460A213846FFF7A9FF414B9C423AD041
:10B4E000404B9C4242D0404B9C424AD03F4B9C42F6
:10B4F00052D03F4B9C425AD03E4B9C4262D0A388D4
:10B5000023F003031B041B0CA380238803F4415383
:10B5100043F4457343F003032380A38B23F40063B8
:10B520001B041B0C0722A383228223889BB243F0B7
:10B5300040032380BDE8F0872F4A516A0B435362D2
:10B5400095E72D4A11690B43136190E72A4A116A66
:10B550000B4313628BE703F584335A6A42F480523B
:10B560005A625A6A22F480525A62C8E703F50033DD
:10B570001A6A42F480421A621A6A22F480421A62FB
:10B58000BDE703F5FE331A6A42F400421A621A6AF2
:10B5900022F400421A62B2E703F582335A6A42F497
:10B5A00000525A625A6A22F400525A62A7E703F51F
:10B5B00068435A6A42F480125A625A6A22F480122C
:10B5C0005A629CE703F564435A6A42F400125A62D5
:10B5D0005A6A22F400125A6291E700BF181A00203A
:10B5E0000030014000380040003C00400034014081
:10B5F000005001400054014000380240431C00F05C
:10B6000069812DE9F04F00EB8003C84FDA0087B065
:10B6100057F802A081000546019107EBC303BAF178
:10B62000000F06D0D3E90249002C00F01F81A37956
:10B6300013B107B0BDE8F08FB9F1000F00F08481BD
:10B6400099F80630002BF4D11832B818DAF80480D3
:10B65000BB50691CC0E90133C3601523A371C9B293
:10B660001623E17189F8071089F806309AF8280046
:10B6700057F016FFB8F804302268A08823F440730E
:10B680001B041B0CA8F80430D9F800301083B9F85B
:10B6900004201A8311212046FFF7BEFC11214846E1
:10B6A000FFF7BAFC09264FF0330B2CB909E1BBF1C7
:10B6B000010B08D00FF00CFC2268A1881369194215
:10B6C0004FF00A00F3D0518305200FF001FC2368EE
:10B6D000A2881A8305200FF0FBFB013EE3D1002C6A
:10B6E00000F05481332603E0013E08D00FF0F0FB58
:10B6F0002268A188136919424FF00A00F4D05183DF
:10B7000005200FF0E5FBB9F1000F00F06C81D9F8CE
:10B710000030B9F804205A8305200FF0D9FB2368C4
:10B72000A2881A8305200FF0D3FBD9F80030B9F8AE
:10B7300004201A8305200FF0CBFB2368A2881B6925
:10B740001A4240F0C880019B2B4407EBC303997C4D
:10B750001A7C002940F0CB8020461221FFF724FEFE
:10B760001221019B2B4407EBC3035A7C4846FFF789
:10B770001BFE6F4B984500F054816E4B984500F0CE
:10B780005B816D4B984500F06881019B2B4407EB72
:10B79000C3034FF47A729C8AB8F8043023F44073E0
:10B7A0001B041B0CA8F80430B8F800309BB243F01F
:10B7B0000103A8F80030B8F8045002A802FB04F412
:10B7C00025F03F0553F0AAFD04995C4B2D04A3FB23
:10B7D00001232D0C45EA9345A8F80450B8F8002041
:10B7E00022F001021204120CA8F80020544A980C0E
:10B7F0009442034600F381806200B1FBF2F292B200
:10B800000133042A38BF0422A8F82030A8F81C20ED
:10B81000B8F800309BB243F00103A8F80030B8F844
:10B82000003023F4816323F002031B041B0C4FF44C
:10B83000804143F48063A8F80030A8F80810B8F8F5
:10B84000003023F080031B041B0C0022A8F80030FA
:10B850009AF82A00114657F057FD00229AF829005D
:10B86000114607B0BDE8F04F57F04EBDB9F1000FDB
:10B8700000F0088199F80630002B7FF4DAAE183218
:10B88000BB18DAF80480BC50C3E90144DC6016231D
:10B8900089F806306B1C89F807309AF8280057F0B1
:10B8A000FFFDB8F80430B9F8042023F440731B04FA
:10B8B0001B0CA8F80430D9F800301A83EEE60FF01C
:10B8C00007FBBBF1010B4FF00A00F8D105200FF088
:10B8D000FFFAFFE67047019BD9F800202B4407EBE5
:10B8E000C30312699A7C002A00F0B1801A7C3221CD
:10B8F0002046FFF759FD322133E704EB4404B1FB46
:10B90000F4F18AB2C1F30B0109B942F001020D4909
:10B910004FF4967300FB03F3A1FB03139B09013360
:10B9200042F40042A8F8203070E700BF181A002047
:10B930000054004000580040005C004083DE1B4380
:10B94000A0860100D34D62101832BB18DAF80480CB
:10B9500047F80290C3E90199C3F80C901523A3712D
:10B96000431CE3719AF8280057F09AFDB8F80430A8
:10B97000A28823F440731B041B0CA8F8043023682E
:10B9800011211A832046FFF747FB8BE6332401E0A1
:10B990000FF09EFA013C4FF00A00F9D105200FF09C
:10B9A00097FAB9F1000F63D0D9F80030B9F8042044
:10B9B0005A8305200FF08CFA05200FF089FAD9F888
:10B9C0000030B9F804201A8305200FF081FA019B9A
:10B9D0002B4407EBC3039A7C002A18BF32215A7C00
:10B9E00008BF1221C2E605200FF072FA2368A28870
:10B9F0001A8305200FF06CFA05200FF069FA23680E
:10BA0000A2881B691A4254D1019B2B4407EBC30344
:10BA1000997C1A7C00295BD020463221FFF7C4FCB8
:10BA2000A7E603F5F2331A6A42F400121A621A6AA0
:10BA300022F400121A62A8E603F5F0331A6A42F4FF
:10BA400080021A621A6A22F480021A629DE61A7C47
:10BA500020461221FFF7A8FC82E603F5EE331A6AAE
:10BA600042F400021A621A6A22F400021A628CE698
:10BA700005200FF02DFA05200FF02AFA05200FF00F
:10BA800027FA76E61832BB18DAF8048047F80290F5
:10BA9000C3E90199C3F80C909AF8280057F000FD0B
:10BAA000B8F8043023F440731B041B0CA8F80430CE
:10BAB000F8E5019B2B4407EBC30320469A7C002A40
:10BAC00018BF32211A7C08BF1221FFF76DFC50E627
:10BAD00020461221FFF768FC4BE600BF2DE9F84332
:10BAE00007460FF05BF9DFF84C8007EB8709044647
:10BAF00008EBC90542F20F7604E00FF04FF9001B86
:10BB0000B0420ADC6B7E002BF7D108EBC90898F82D
:10BB1000180080F00100BDE8F883B8F8943B0133C9
:10BB200038469BB2A8F8943BFFF768FD0020BDE8BB
:10BB3000F88300BF181A00202DE9F04F83B0441C91
:10BB40008DF8073014D00228044611DC324F00EB88
:10BB5000800307EBC30BDE00DBF804A0BAF1000F93
:10BB600006D09BF81930914603F0FF0200921BB1FA
:10BB7000002003B0BDE8F08F0D466D000FF00EF908
:10BB8000EDB206F120038BF81A50FD180DF10701F4
:10BB9000009A8BF81B90804601208BF81D008BF8D3
:10BBA0001E20F95069608BF81C008BF819008BF887
:10BBB0001820BAF8043099051ED4BAF80030DA0516
:10BBC00013D442F20F7505E00FF0E8F8A0EB08037C
:10BBD000AB4217DCBAF800309B05F5D4BAF8003058
:10BBE0009BB243F48073AAF80030BAF804309BB2D9
:10BBF00043F44073AAF804302046FFF76FFF03B008
:10BC0000BDE8F08FB7F8943B01339BB22046A7F80C
:10BC1000943BFFF7F3FCABE7181A0020B0F1FF3FAD
:10BC200065D02DE9F04F022883B0044613DC314E75
:10BC3000984600EB800306EBC305DB00D5F804A0B3
:10BC40000093BAF1000F06D08946697E934601F051
:10BC5000FF02019219B1002003B0BDE8F08F0FF090
:10BC60009DF8009B019A20334FEA4901C9B207466B
:10BC7000F018A9764FF0010C0C9985F81BB06A7783
:10BC800085F81EC0F150416085F81C8085F819C008
:10BC90002A76BAF8043099051DD4BAF80030DA05CE
:10BCA00012D442F20F7504E00FF078F8C31BAB42D8
:10BCB00013DCBAF800309B05F6D4BAF800309BB21A
:10BCC00043F48073AAF80030BAF804309BB243F40E
:10BCD0004073AAF804300120BEE7B6F8943B013364
:10BCE0009BB22046A6F8943BFFF788FCB3E7002000
:10BCF000704700BF181A0020E0B500EB8003274E04
:10BD000006EBC30256F833305D68AB8A84B09BB251
:10BD10000393039B13F4706F1CBF01231376039BE3
:10BD200013F4E06F4FEA80070CD1AB8A074423F489
:10BD3000706306EBC7061B041B0C0022AB827276F5
:10BD400004B0E0BD2B8BAB8823F480631B041B0C79
:10BD5000AB80039B9A05E8D42B889B05E5D42B8800
:10BD6000D9050FD52B88DA05FCD42B889BB243F478
:10BD700000732B802B889B05FCD40190FFF73EFCC1
:10BD80000198D2E72B889BB243F400732B80AB88D9
:10BD900023F440731B041B0CAB80C6E7181A002069
:10BDA0000020A9E70120A7E70220A5E770B590F8D9
:10BDB00071301C09013C052C0FD81A4E06EB4402C9
:10BDC0000546B2F86C0703F00F0340FA03F2D207FE
:10BDD00003D595F87C20012A01D0012070BD9A403E
:10BDE000013A104026445DF055FA96F878370E4A2D
:10BDF000034402EBC30452F83320A38810691840AF
:10BE0000ECD0EB6E002285F87C2093F821200221F3
:10BE10002046FFF7C9FA2A6E93899BB243F00803C4
:10BE20009381DAE78CA30608B0250020094BD3F8EC
:10BE3000982ED3F89C1E40F22A40002350604B629B
:10BE40000B889BB243F001030B80136843F001039E
:10BE500013607047181A00201D4B1E48196C1E4AAB
:10BE600010B441F080510124196404625321FF246D
:10BE7000CA205462506251625B6FDB0085B017D4F8
:10BE800016480423002102910290029A1A44029259
:10BE9000029A04331C2B1160F5D103910390039B8C
:10BEA0000393039B0E4A1A6005B05DF8044B70477C
:10BEB0000A4B002201920193019B0193019A084BC6
:10BEC00012689A42DCD105B05DF8044B704700BFA0
:10BED0000038024000000E42002800405028004078
:10BEE0003166654230B5154C154D85B001390023DA
:10BEF00089B2A042ADF80C30ADF806308DF80E30A6
:10BF00000291D5F8B8370FD00E4988420CD001F510
:10BF10008041884208D001F58061884204D001F553
:10BF20008061884218BF5B08B3FBF2F301A9013BB3
:10BF3000ADF8043053F068FC05B030BD000401409A
:10BF4000181A0020000001402DE9F043046ED0F8DB
:10BF50000890A38923F400531B0406461B0CA381FD
:10BF600047793579C7F3800005F001083A024FEAB6
:10BF7000880315F002054FEA003002F4806218BF12
:10BF800043F0080302431A43238A39039BB223F484
:10BF9000405301F4005119432182A38923F4B05383
:10BFA00023F00C031B041B0C1343A381A38A23F46B
:10BFB00040731B041B0C91B0A38201A853F0AEF98F
:10BFC000814B9C4205D003F580639C4201D0039BCA
:10BFD00000E0049BA2897D49A089120403EB83033E
:10BFE0004CBF4FEA49094FEA890903EB8303B3FBCE
:10BFF000F9F3A1FB03C252094FF0640C00040CFBDF
:10C0000012334FEA021200F190801B013233A1FB80
:10C010000313C3F343131A4392B2FB07228100F1C7
:10C0200090803807A38A7AD59BB243F00803A38295
:10C03000A3899BB243F40053A381B8F1000F30D021
:10C04000F76B002F00F097800023CDE90833CDE98E
:10C050000C33CDE90E3304930693736C0193F36DA7
:10C060000293F3680593736903934FF480714FF45F
:10C070008033CDE90A1338464FF48063079353F0B9
:10C08000A7F901A9384653F039FA3B6843F0010398
:10C090003B60A38A9BB243F04003A3827B689BB2C0
:10C0A0007365002D33D0376C002F70D0B36C0193C3
:10C0B000B36D029333690593402304934FF48033A7
:10C0C000002538460B934FF480630793CDE908555C
:10C0D000CDE90C55CDE90E55039506950A9553F01B
:10C0E00077F901A9384653F009FA7B6943F08003D8
:10C0F0007B613B6843F016033B607D60A38A9BB283
:10C1000043F08003A382E36843F04003E360A38924
:10C110009BB243F40053A38111B0BDE8F08323F038
:10C1200008031B041B0CA38282E7DB003233A1FB54
:10C130000313C3F342131A4392B2FB0722817FF524
:10C1400070AF214B9C4229D0A3F54C439C4223D095
:10C1500003F580639C4223D102221D4BD3F8603B40
:10C160001344987D0DF05AFD00283FF45AAF036840
:10C1700082881A8355E74FF6DF732380E36843F024
:10C180002003E360E36843F01003E36089E7E368BA
:10C1900043F08003E360B6E70122DEE70022DCE73C
:10C1A00003F580639C4201D10322D6E703F5806347
:10C1B0009C4206D003F544439C427FF432AF0522F3
:10C1C000CBE70422C9E700BF001001401F85EB51F7
:10C1D000181A00202DE9F84F4C4C04EB8004D4F8D9
:10C1E0002C4A002C00F08180E56E002D79D01F468E
:10C1F000474BA16023609046D5E90A32C4E9052384
:10C200006B8EE3602B8E23616B682366414BA366C4
:10C21000064620460EF098F894F871000DF0FEFCEA
:10C22000814695F8200094F870B0A24600284FD1BE
:10C2300002233A0784F87C3036D418F0020F10D06D
:10C24000B9F1000F0DD00B2389F80630731C89F863
:10C2500007303B0648464AD495F821202221FFF7B3
:10C26000A3F818F0010F04D1E26B9AB15046BDE873
:10C27000F88F58460DF0D2FC0028F5D00C2201367C
:10C28000C671827195F821202221FFF78DF8E26BAB
:10C29000002AEBD195F8241095F82200890957F06F
:10C2A00033F85046BDE8F88F0136F6B207F0400388
:10C2B000B9F1000FD8D00B2289F8076089F8062061
:10C2C00095F821203BB142214846FFF76DF8CBE7B6
:10C2D00057F0E6F8ACE717F0100F14BF0221122157
:10C2E000F2E7AA465046BDE8F88FA246BEE7226EA6
:10C2F000938923F008031B0401211B0C938184F80C
:10C300007C102021FEF788FEABE700BF0400001080
:10C310000CAB0608ADBD0008BFF34F8F0549064BB7
:10C32000CA6802F4E0621343CB60BFF34F8F00BFD3
:10C33000FDE700BF00ED00E00400FA0508B572B6A5
:10C34000FFF7EAFF00B583B00D490022009200918B
:10C35000009B0C330093009B1B68012B02D003B0A1
:10C360005DF804FB01920191019B06490C33019396
:10C37000019B1A600B6883F308884B689847FEE7B7
:10C38000502800400000FF1F38B5FFF765FDFFF79C
:10C39000D9FF012053F044F96E4A936823F0030358
:10C3A0009360936813F00C0FFBD113686949A0B92F
:10C3B00043F00103136041F2883302E0013B00F0D7
:10C3C000C7800A689507F9D5634C00220823C4F892
:10C3D000A02EC4F8A43E02251EE043F4803313606F
:10C3E00041F2883302E0013B00F0B2800A68940316
:10C3F000F9D5594C594B5A4DB0FBF5F5B0FBF3F05C
:10C40000B5EB400F18BF28464FF48003C4F8A03E98
:10C41000C4F8A40EB5FBF0F50220C4F8A85E53F0F2
:10C42000FFF803280DD84F4B03EBC0039988DA8837
:10C43000C4F8B01E5B88C4F8B42EB3FBF5F3C4F89F
:10C44000AC3E444B48491A6C42F080521A640A6868
:10C4500042F440420A609A689A609A6842F4004244
:10C460009A609A6842F4A0529A60D4F8A01ED4F858
:10C47000A42E0A43D4F8AC1E42EA8112D4F8B41EAA
:10C4800042EA0162D4F8B01E4908013942EA014289
:10C490005A601A6842F080721A601A689201FCD5DC
:10C4A000324A40F205711160996821F003019960E8
:10C4B000996841F00201A2F580629960936803F0E7
:10C4C0000C03082BFAD12A49D823B3FBF5F39B01BF
:10C4D00043F000530120C2F884308866FCF7ACFAC0
:10C4E000244D1C4B244AEA60596F244AC4F8B81EF4
:10C4F000AA605A6B224922F080025A635A6F42F0B6
:10C5000080725A671A6B42F4CE021A635A6B5A63EE
:10C510009A6B9A631A6C0A431A64596C194A0A4353
:10C520005A640EF0F1FB184AD4F8B837A2FB032383
:10C530009B09013BB3F1807F09D24FF0E022F0204C
:10C5400053610021072385F823009161136138BDF1
:10C55000014CC5E700380240181A002080841E00F4
:10C5600040420F003CAB060800700040003C024017
:10C570000000474200ED00E00005FA050000002041
:10C58000FFC9FE36335F0700D34D621030B5046833
:10C590002A482B4D85B00139002389B28442ADF879
:10C5A0000C30ADF806308DF80E300291D5F8B83762
:10C5B0000FD024498C420CD001F580418C4208D028
:10C5C00001F580618C4204D001F580618C4218BF76
:10C5D0005B08B3FBF2F301A9013B2046ADF8043040
:10C5E00053F012F92288184892B242F00102002357
:10C5F00000F5FA61228051F83320944208D00133CB
:10C600000E2BF8D1002005B0BDE83040FCF75EB934
:10C6100000EBC30090F8D5472046FCF757F91B2CD8
:10C6200005D02E2C08BF2C20EDD005B030BD192030
:10C6300005B0BDE83040FCF749B900BF0004014037
:10C64000181A0020000001408CA3060870B5046889
:10C65000A30AA3F58013522B50D8364D2B4493F8E0
:10C66000F4C3BCF10D0F49D84379022023FA00F539
:10C670000CEB8C03A8400CEB43031FFA80FE2B4409
:10C68000002949D0A5892C48ADB200EB830645EAC4
:10C690000E05C6F85015C6F86025A581EFF3118682
:10C6A000502383F312882C2202FB0C03D3F84C1581
:10C6B00061B3C3F87015214B04310CEB8C02204D93
:10C6C0000CEB4202920005EB020E1032134453F8B9
:10C6D000042F0AB10A60111D7345F8D10022F3B28C
:10C6E0000A6083F311882C2303FB0C00D0F870350B
:10C6F0002BB1A3899BB243F00103A38170BDA38931
:10C7000023F001031B041B0CA38170BD0B4B02FB28
:10C710000C3202F12401D0E7A08980B220EA0E0099
:10C72000A081054800EB8305C5F85015C5F86025C4
:10C73000B4E700BF8CA30608181A0020641F00206D
:10C74000841F002001490248FDF73CB9641F002006
:10C750000000014010B5064C064804F24C51FDF7AC
:10C7600031F904F5DB610448BDE81040FDF72AB952
:10C77000181A0020000001400044014002494FF017
:10C780008040FDF71FB900BF901F002001490248FB
:10C79000FDF718B9BC1F0020000400400149024801
:10C7A000FDF710B9E81F00200008004001490248C9
:10C7B000FDF708B914200020000C00400149024890
:10C7C000FDF700B9982000200004014010B5064C88
:10C7D000064804F5D061FDF7F5F804F25C710448F1
:10C7E000BDE81040FDF7EEB8181A00200004014023
:10C7F000001C004001490248FDF7E4B8C4200020B5
:10C800000040014001490248FDF7DCB81C2100202E
:10C810000048014001490248FDF7D4B848210020F2
:10C820000018004001490248FDF7CCB8A0210020C3
:10C83000002000402DE9F0411348144D4FF41A72C6
:10C8400000215BF089FE4FF00008A5F50467A5F113
:10C85000700440F2222655F82810002354F83320A3
:10C8600091420BD001330E2BF8D1002008F10708BC
:10C8700056F016FEB045EED1BDE8F08107EBC303DC
:10C8800093F8D407F2E700BF641F0020CCAB060882
:10C8900010B50C2935D8DFE801F091343434633415
:10C8A0003434073434343500038C5488B2F80CE047
:10C8B00023F480731B041B0C0384038CB0F804C0A6
:10C8C000818B21F073014EEA040E0904148823F4CD
:10C8D0000073090C1B042143764C1B0C43EA0E2306
:10C8E000A0421FFA8CFC9BB200F0948004F5806497
:10C8F000A04200F08F809268A0F804C08183C263D8
:10C90000038410BD038C5488B2F80CE023F48053E8
:10C910001B041B0C0384038CB0F804C0818B21F42E
:10C92000E6414EEA040E0904148823F40053090C6E
:10C9300041EA04211B045F4C1B0C43EA0E33A04266
:10C940001FFA8CFC9BB289B27ED004F58064A042B1
:10C950007AD09268A0F804C081830264038410BD79
:10C96000038C5488B2F80CE023F010031B041B0C5A
:10C970000384038CB0F804C0018B21F4E6414EEA35
:10C98000040E0904148823F02003090C41EA042151
:10C990001B04484C1B0C43EA0E13A0421FFA8CFCEC
:10C9A0009BB289B26CD004F58064A04268D09268D2
:10C9B000A0F804C001838263038410BD038C5488F3
:10C9C000B2F80CE023F001031B041B0C0384038C5E
:10C9D000B0F804C0018B21F073014EEA040E090483
:10C9E000148823F00203090C1B042143314C1B0C57
:10C9F00043EA0E03A0421FFA8CFC9BB22CD004F534
:10CA00008064A04228D09268A0F804C001834263E9
:10CA1000038410BDD489B2F810E023F4006343EA24
:10CA20000423548A2CF4405C4EEA040E4CEA0E1C9B
:10CA300094884FF6FF3E03EA0E0E4EEA042E1FFACC
:10CA40008CFC1FFA8EF356E7148A2CF4804C4CEAC7
:10CA5000841C1FFA8CFC7CE7D489B2F810E023F028
:10CA600008032343548A2CF4407C4EEA040E948835
:10CA700023F004034CEA0E0C1FFA8CFC2343C2E79C
:10CA8000D489B2F810E023F0800343EA0413548AF7
:10CA90002CF4406C4EEA040E4CEA8E0C94884FF64F
:10CAA000BF7E03EA0E0E4EEA041E1FFA8CFC1FFA2C
:10CAB0008EF37CE7000001402DE9F04FB14BDFF829
:10CAC000DC8293F8CEEEB04CB04D95B00EF1FF374E
:10CAD000FBB200930023CDE9013EC246DFF8C0B2AD
:10CAE000DBF80070BB0AA3F58013522B00F20A8119
:10CAF000234493F8F4330D2B00F2048115F90390CD
:10CB0000029B012B00F00981029B022B02D1B9F19B
:10CB1000080F6DD10026314648460EF0CDFF0FF0CC
:10CB200057F8037813B1542B40F073810436B6B232
:10CB3000102EF0D1019B002113B342460BE0234499
:10CB400093F8F4330D2B0DD8EB564B450DD002F571
:10CB50008072524512D0906803689B0AA3F5801337
:10CB6000522BECD900234B45F1D143799BF80500BA
:10CB700098423DD002F580725245ECD1002937D160
:10CB80005846FBF725FCC3B2022B9BF805E000F2E8
:10CB9000148300F1010C7C4A0CEB4C0C4FEA8C0C1A
:10CBA00002F57D7003E02C32904200F0068313689A
:10CBB0009F42F8D113797345F5D152F80C30002B10
:10CBC000F1D07348002142689A4200F0A2800131FE
:10CBD000102900F12400F6D14FF0FF336D4A03EB2A
:10CBE000C30302EB830393F8A430002B00F02481ED
:10CBF000694B0BF11C0B5B457FF472AF019B01335A
:10CC0000042B01930AF5807A7FF468AFDFF894B1C2
:10CC1000DBF83C3605934FF0000A0BF244530BF55A
:10CC200081690193CDF800A0009B059A934266DAD2
:10CC3000544BD9F80C7093F8E42E99F81030039304
:10CC4000002F5CD03B68DBF80400049303F13F4500
:10CC500005F57E05BB88029300284FEA952564DD23
:10CC6000002302E0013383425CD01C0258F8041018
:10CC7000A942F7D14444039B89F81030029B009DE0
:10CC8000C9F80C70B3FA83FCCCF11F064FF0030215
:10CC90000135C9F80460C9F81840BA71FD71730014
:10CCA000E16C606C012203279F4002FA03F31943F1
:10CCB0009BF80030E164384302FA06F66064276DA1
:10CCC000D4F8A000B1B2002B00F0A9803E43266545
:10CCD000049E029B3383FBF7B5FB2046FBF706FD62
:10CCE00040F20112A9F81C20019A00950123537407
:10CCF000082D02F1180309F12009019394D115B010
:10CD0000BDE8F08F009B012B7FF672AF4FF000095A
:10CD100000E74B1CDBB2013B60E7B9F1010F3FF4C8
:10CD2000F9AE65E7042B00F08A800BEB00230102CB
:10CD3000069119690791002900F035826C1C089250
:10CD4000E4B24FF054029D6083F8042183F805415A
:10CD5000079B01305E79CBF8040018461D680996E0
:10CD6000FBF736FBC3B2022B00F2278200F1010C65
:10CD70000CEB4C0C044B089A4FEA8C0C0021B64685
:10CD800018E000BF181A00208CA3060880240708AA
:10CD9000100200208801002050B506080C00001089
:10CDA00054B40608040000100131172903F12C03C4
:10CDB00000F003821E68B542F6D11E797645F3D1A4
:10CDC00053F80C60002EEFD02C2300EB400001FB49
:10CDD00003F38749DFF864A203EB80030B4450465A
:10CDE0001969069B0C915B44C3E906610021436805
:10CDF000B34234D00131102900F12400F7D17D4B2A
:10CE000093F88020FAB9542283F8802083F8814077
:10CE100019E0019B0121002B7FF48FAEE8E6CCF1F5
:10CE20002F0C02FA0CF23A432265049A029E5683B2
:10CE30001A46FBF707FB50E7CAF808B0DEE66E4A71
:10CE4000032382F8E53E6D496D4A6E4BCBF8681AB4
:10CE5000CBF8602ACBF8703A15B0BDE8F08F4B1CC8
:10CE6000DBB26449013B03EBC30301EB830393F89B
:10CE7000A4100B910029E6D1069883F8A540C111B2
:10CE800001EB2021604C01EB011104EB81040699B8
:10CE900008948C205D4C091200FB01F104EB410C5D
:10CEA0000699089CCDF828C05944C1F8A8405424DC
:10CEB00083F8A4403323C1F8F400C1F8AC300498DF
:10CEC0004D4BC8605248C1F8F0C0D3F8B817069B64
:10CED000854208EB03040FD04E4B9D420CD003F566
:10CEE00080439D4208D003F580639D4204D003F542
:10CEF00080639D4218BF4908062A00F05181072A25
:10CF00004548464A464B18BF1346464A18BF024694
:10CF10000698B1FBF2F2B1FBF3F3013A0BEB00011F
:10CF200092B2013BA1F8B030A1F8682000F15401A1
:10CF30000023A4F85C30284648F80130A26541443B
:10CF400052F062FC0023ADF840302B8809999BB267
:10CF500043F080032B802B8823F001031B041B0C60
:10CF60002B80314B0F934FF0020E4FF48073CDE9BD
:10CF700012E328460A230FAA1193FFF789FC079BA7
:10CF80001879002840F0F6802B889BB243F001030B
:10CF90002B800023DAF80420964203F1010300F00D
:10CFA000E580102B0AF1240AF4D14FF0FF33114A27
:10CFB0001E491F4803EBC30302EB83031D4AD3F84A
:10CFC00088308B4214BF4FF480034FF40013116B71
:10CFD0000B431363099A0C2A9BBF174B03EB4203C5
:10CFE0000022B3F8CC20069B5B449A8200232EE0FB
:10CFF0008CA3060888010020181A0020D1710108AE
:10D00000CD710108D971010800290020302C0020C1
:10D010000004014000000140D0DD060044950800F6
:10D020001055220040771B006000010000600240A4
:10D03000140600100038024084B4060810020020D4
:10D040008D4200F0B5800133042B00F0B38050F81E
:10D0500033100029F4D1DBF80C160131CBF80C1693
:10D060000BEBC301DB00C1F8105603440B98998801
:10D070000A439A80524923469022FDF7D3FE336833
:10D08000069A049843F010033360089BE3660C9BF8
:10D09000636602F1640104234FF40032C4E92323E0
:10D0A00040233322C4E91C3200F1180200254FF45A
:10D0B000806AA2664FF480504FF48042C4E9200297
:10D0C00041443046C4E92555A567C4F88850C4F8E2
:10D0D0009C50C4F87CA052F011FA3068E06170698D
:10D0E000206270680C9B6062B068A062F068C4F84F
:10D0F000AC300423C4F8D8300A9BE062C4F8B430E2
:10D100000498069AC4F8C4A04FF44033C4F8D4304D
:10D110008C23C4F8BC3000F1100302F1AC01C4F858
:10D12000B0304FF480424FF40063C4F8C830C4E913
:10D1300037554144C4F8CC20C4F8B850C4F8C050A6
:10D14000C4F8D050C4F8E450304652F0D7F93368F0
:10D150002363736963637368A363B368E363F3680A
:10D160002364336843F01003336084E5DBB20B9330
:10D17000013B1CE70CF052FD0D9038B1079B0221DA
:10D18000DA79FEF711F90D9B5422DA80B5F84430B4
:10D190006FEA43436FEA53439BB2A5F84430F3E68A
:10D1A000084B094AB4E6094A022382F8E53E4AE6FA
:10D1B000DB005AE700239B88FFDE00235B68FFDE6D
:10D1C0008D840008882A1100A0BB0D00181A0020C9
:10D1D0000C2911D8DFE801F02310101019101010DD
:10D1E000111010100700838B23F400631B041B0C29
:10D1F00043EA02239BB283837047838B23F00803A7
:10D200001B041B0C1A4382837047038B23F40063B7
:10D210001B041B0C43EA02239BB203837047038B5E
:10D2200023F008031B041B0C1A430283704700BF42
:10D230002DE9F04F994D2B7889B01BB9012009B029
:10D24000BDE8F08FDFF86492D9F8C0470DF0D2FD49
:10D2500095F8B43A0393002B00F01482904BA3FB93
:10D260000432904B5209A3FB0213DB0803EB830348
:10D27000A2EB4303D5F83826821A049205F5C86B51
:10D28000DAB207920BEB830309F1E40405F51262AD
:10D29000029200279846019432E0304652F098F806
:10D2A0008C2303FB0793002583F8D8509AF805A038
:10D2B000204651462A46FFF78BFF019C2246FFF786
:10D2C000E7FA51460822FFF783FF402344F83C3C2D
:10D2D000A4F14801304652F011F904F18C03019396
:10D2E000029B14330293336843F010033360039BB3
:10D2F00001379F420BF15C0B08F15C0800F0D8800D
:10D30000049A002A05DB019B53F8083C934200F382
:10D31000A5818C23019A03FB079352F858AC93F82C
:10D32000D830166ADAF80040002BB6D07568A389A9
:10D33000ADB2114632F8542CC5F116059BB223EA62
:10D340000203072DA381A8D9544AD2F82839013302
:10D35000C2F828398A6A0021CDE90572106896461C
:10D360008C46012315E0BCF1140F1EDC12F10807F6
:10D3700048BF02F117073A110CEB271C571E01FAA0
:10D3800002F201210B4401FA07F79D4247EA02012C
:10D390000BD302465EF8040F9D42A0EB0202E2D8D6
:10D3A000CCF115024FF0150CE8E7BCF1150FDDE9E3
:10D3B000057266D13C4DC1F38423C1F3441005EBE3
:10D3C000830305EB8000D3F8E830D0F8E8001B02B7
:10D3D00043EA001301F01F0005EB8000C1F3C431E4
:10D3E00005EB8101D0F8E800D1F8E810034343EAE7
:10D3F000013383EA132181EA111101F00F010F2992
:10D400003FD1C3F30F134FF6FF718B4239D0B3F501
:10D41000606F00F02781029A93819BF8582007984B
:10D42000824214D0D8F80810DBF80020521ACBF84A
:10D430000020D8F83010DBF80420521ACBF8042072
:10D440000022C8F80820C8F830208BF85800DBF814
:10D4500000200132CBF80020D8F808200132C8F8AB
:10D4600008204FF6FF7293427FF417AFDBF80430C9
:10D470000133CBF80430D8F830300133C8F83030FD
:10D480000BE70649D1F824390133C1F82439002FBC
:10D4900000F0DA804FF6FF73BFE700BF0400001012
:10D4A0001F85EB51CDCCCCCC84B40608181A0020D3
:10D4B000794AD9F88C10C2F83856012382F8243AF8
:10D4C0000A68487999F89410890748BF0423118C99
:10D4D00083409BB289B221EA03011184118C89B285
:10D4E0000B431384039B012B3FF4A8AED9F81821FA
:10D4F0001368517999F82021970754BF012204221B
:10D500008A40198C92B289B221EA02011984198CDD
:10D5100089B20A431A84039B022B3FF48FAED9F8D9
:10D52000A4211368517999F8AC21960754BF0122C0
:10D5300004228A40198C92B289B221EA020119842C
:10D54000198C89B20A431A84039B032B3FF476AEED
:10D55000D9F830221368517999F83822950754BFC9
:10D56000012204228A40198C92B289B221EA020176
:10D570001984198C89B20A431A84039B042B3FF443
:10D580005DAED9F8BC221368517999F8C42294078A
:10D5900054BF012204228A40198C92B289B221EA36
:10D5A00002011984198C89B20A431A84039B052B42
:10D5B0003FF444AED9F848231368517999F85023C1
:10D5C000900754BF012204228A40198C92B289B27A
:10D5D00021EA02011984198C89B20A431A84039B37
:10D5E000062B3FF42BAED9F8D4231368517999F860
:10D5F000DC23920754BF012204228A40198C92B284
:10D6000089B221EA02011984198C89B20A431A8469
:10D61000039B082B7FF412AED9F8602499F86814A4
:10D620001368507911F0020F18BF0422198C08BF3B
:10D630000122824092B289B221EA02011984198C36
:10D6400089B20A431A84F9E51146144858225AF05F
:10D650006DFDDAF800404FF6FF73DEE6002009B0FA
:10D66000BDE8F08F99F8E52402EB420209EBC20213
:10D670003A4492F8F5240D2A7FF4CDAE0299802227
:10D680008A77CAE6044A012382F8243A1346039AA9
:10D69000C3F83826D2E500BF04000010D0090010FE
:10D6A00008B9002070472DE9F04F002299B02F21D2
:10D6B00005460EF0E1FA814600B3DFF85C830668A8
:10D6C000C8F89C6EFDF7B2FAC0B1D0E9014AC8F8BB
:10D6D000984E9CB1C24F00223946384643689C425E
:10D6E00000F1240002F101020CD0102AF6D1BD4B4A
:10D6F00093F8802012B92F22A3F88020002019B0BF
:10D70000BDE8F08FD2B2B74B013A02EBC2029000F3
:10D7100003EB820292F8A4B0BBF1000FEED10A181D
:10D720002F21284691830CF079FAAF4D2F21C5F8AF
:10D73000800528B1C18099F807202A21FDF734FE21
:10D74000AA4B002203F5FA6050F832108E4200F026
:10D75000148101320E2AF7D1002055F0A1FE318844
:10D76000D8F8B82721F001010904090C3180A0493B
:10D770008E4200F0E980A1F580618E4200F0E480E5
:10D7800001F580418E4200F0DF8001F580618E421C
:10D7900000F0DA8001F580618E42964900F00C813C
:10D7A000B1EB520F4FEA520040F2FA800021012201
:10D7B000B0FBF2F2ADF804108F499048120AA1FBB9
:10D7C00002210A09A0FB02025208A5F886250909D0
:10D7D0005200A5F884250291002501A93046ADF834
:10D7E0000C50ADF806508DF80E5052F00DF899F827
:10D7F0000620ADF8145060219307CDE90655089531
:10D80000049199F8055040F1A480D20002F008027A
:10D810004FF00408ADF81E20ADF8148004AA294684
:10D820003046FFF735F808222946FFF7D1FCB6F855
:10D8300044206FEA42426FEA524292B2A6F8442074
:10D84000328892B242F080023280328C08FA05F3BC
:10D850009BB292B222EA03023284328C92B2134318
:10D86000338433889BB243F0010333803A4600236C
:10D8700051688C4202F1240203F1010377D0102B8E
:10D88000F6D14FF0FF33574A5D4903EBC30302EB78
:10D8900083095C4AD9F888308B4214BF4FF4800367
:10D8A0004FF40013116B0B43136300237A68944207
:10D8B00007F1240703F101035CD0102BF6D1524984
:10D8C000602200235846FDF7ADFA204651F080FD56
:10D8D000236823F001032360204651F079FD06F10F
:10D8E00034032B440A9340F22A430D934FF4806390
:10D8F0000F93464B0B9340230C934FF480504FF4FF
:10D9000080430027CDE9100309A94FF44033204696
:10D91000CDE91477CDE91677CDF824A00E971297AC
:10D92000139351F0EBFD0C2D04D8394B03EB450359
:10D93000B3F8CC70B3899BB23B43B381236843F007
:10D94000100301202360DAE62A498A421AD2002114
