:020000040800F2
:10000000000001209DDE040839DF0408A1B50108C5
:10001000F5B3010839DF040839DF040800000000E7
:1000200000000000000000000000000039DF0408AC
:1000300039DF04080000000039DF0408297A0108CC
:1000400039DF040839DF040839DF040839DF040820
:1000500039DF040839DF040861A3000869A3000838
:1000600071A3000879A3000881A3000851A100082A
:1000700065A1000879A100088DA10008A1A10008D0
:10008000B5A10008C9A1000839DF040839DF040858
:1000900039DF040839DF040839DF040889A30008C0
:1000A00089CB000885CA000899CB000875CA0008EA
:1000B000ADCA0008BDCA0008CDCA0008619A000890
:1000C000559A0008959A0008899A000839DF0408B3
:1000D00039DF0408817901088D79010899790108CF
:1000E00091A3000839DF040839DF0408A9CB000810
:1000F00061CB000839DF040851CB0008DDA10008FE
:1001000039DF040839DF0408DDCA000839DF0408D4
:10011000A5790108B1790108EDCA0008CD390408B4
:10012000F1A1000805A2000819A200082DA20008EC
:1001300041A20008000000000000000000000000D4
:10014000000000000000000000000000192F04085B
:1001500055A2000869A200087DA20008BD79010827
:10016000C99A0008BD9A000839DF040839DF04087D
:1001700039DF040839DF0408000000000000000037
:1001800039DF040839DF040839DF040839DF0408DF
:1001900039DF040839DF04080000000039DF0408F3
:1001A00000000000000000000000000039DF04082B
:1001B00039DF040839DF04080000000000000000F7
:1001C000000000000000000000000000000000002F
:1001D00000000000000000000000000039DF0408FB
:10800000084A0346D0F8E4005268D3F8F010121A78
:1080100000209142B8BFC3F8F020012283F81C2150
:10802000704700BF001000E01B4B016803F57D7C2A
:1080300002E02C3363452BD01A688A42F9D170B51F
:1080400093F804E0427996450BD02C33634505D074
:108050001A688A42F4D02C336345F9D14FF0FF30CF
:1080600070BD9E4684680022DEF80C50A54208D000
:1080700001320EF10C0E032AE7D0DEF80C50A542B7
:10808000F6D1DEF81050C668B542F1D150B270BDDD
:108090004FF0FF30704700BF68EA04084368426D44
:1080A00030B49A61EFF31182502383F31288416850
:1080B000D2B2856C0B68046D23EA050323430B6081
:1080C00082F31188436981681A68096822F0010205
:1080D000D0E908541A60826A1D605C615A60D0E978
:1080E0000B429C60DA600023B0F86C2030BCCA629E
:1080F00003777047002A4FEA014C034630B508BFAA
:10810000E64600F1C00514BF8E468C46002419686F
:108110000C3353F8042C43F8084C41EA0C0142EAB2
:108120000E02AB4243F80C1C43F8042CEFD1D0F8FC
:10813000C03043EA0E03C0E93144C0F8C03030BD5E
:1081400083695969B3F810C00A6830B49C6822F09A
:10815000010224680A60E26822EA0C02E260027D01
:1081600000681F2A06D9203A0824456894402C420A
:1081700042D0FEE70824056894402C42F9D120241F
:1081800004FA02F28260254A1278002A32D01A7F5D
:10819000012A36D0D3F800210132C3F80021EFF3D1
:1081A0001181502282F312885868C9B29D6C02680E
:1081B000DC6C22EA05022243026081F311885A69CD
:1081C0009968D3E90D40096814605061D3E90F4004
:1081D000546090605C6CB3F8B400D4600124C86251
:1081E0001068204310601A8A1C7783F8FD40CB6822
:1081F0001343CB6030BC7047202404FA02F2C26003
:10820000C1E70022D3F8040183F8FD2001300A6899
:10821000C3F8040122F001020A60EBE7E00100204C
:1082200010B40C4C6368002B11DD002004F1080C25
:108230000146DCF8AC3003F1C00259600C339342C4
:10824000FBD1013063680CF5867C8342F1DC5DF87C
:10825000044B7047E0010020704700BF024B03EB66
:10826000401393F855047047E0010020704700BFA9
:108270000B4890F86C1589B101EB4101002300F225
:108280007450490010B41C4650F82320063302B144
:1082900014608B42F8D15DF8044B7047704700BF03
:1082A000E00100200B4890F86C1589B101EB410109
:1082B000002300F27450490010B41C4650F82320EB
:1082C000063302B114608B42F8D15DF8044B70475D
:1082D000704700BFE00100200120704700EB400024
:1082E000024B03EBC00393F885057047E0010020C3
:1082F000204890F86C35002B3AD0002200F27453DD
:108300004FF02C0C2DE9F0434FF0500E1A4E1B4D40
:10831000144607E053F8181B01320C6090F86C15F6
:10832000914223DD197C0029F4D05F684FF0FE08EC
:10833000B90AA1F580115229294498BF91F8F48314
:10834000EFF311818EF31288D7F824900CFB0868A4
:10835000C9B209F10109C8F82890D7F8148048F08B
:108360000108C7F8148081F31188D3E7BDE8F083D2
:10837000704700BFE0010020F816012068EA0408F9
:1083800000EE100AB8EE400A704700BFBCEEC00A0B
:1083900010EE103A98B270472DE9F0410022794B67
:1083A000846982B0D3F894620192082204F19C0798
:1083B000D4E93D839A40D8F80050154205D0D4F84E
:1083C0009C100868400700F1B08001229A401542D5
:1083D00005D0D4F89C104969080600F19D8004225C
:1083E0009A40154205D0D4F89C100968890700F11D
:1083F0008A8010229A40154204D0D4F89C10086854
:1084000000076AD420229A40154218D0D4F89C1054
:108410000868C00613D5C8F8082094F8D120052AAA
:1084200039D00B6813F4802F0B6800F09280190389
:1084300040F19D80D4F8D8300BB138469847D4F835
:10844000F030002B46D0D4F8F030DA071BD54E4B75
:10845000D4F89C20A3FB0636052384F8D130B60A55
:10846000136823F00103136002E01368DB0704D5EF
:10847000019B01339E420193F7D20022012384F82D
:10848000D02084F8D130D4F8E8301BB3384602B09D
:10849000BDE8F04118470A6822F016020A604A69EE
:1084A00022F080024A61D4F8DC20002A65D00A68F4
:1084B00022F008020A603F22002102FA03F301229F
:1084C000C8F80830D4F8EC3084F8D01084F8D12003
:1084D000002BDBD102B0BDE8F081C8F808200A68A3
:1084E00012F4802F0A682DD1D20503D40A6822F035
:1084F00008020A60D4F8DC20002A83D0384690476E
:10850000D4F8F8307EE7C8F80820D4F8F02042F01C
:108510000402C4F8F0206CE7C8F80820D4F8F02072
:1085200042F00202C4F8F02059E7086820F0040085
:108530000860C8F80820D4F8F02042F00102C4F81E
:10854000F02042E71103D5D5D4F8E420002AD5D194
:1085500058E713F480737FF46DAF0A6822F01002BD
:108560000A60012284F8D03084F8D12062E7D4F880
:10857000E030002B7FF461AF61E7D4F8E420002AFB
:1085800095D198E7F8160120B5814E1B09494FF4A3
:10859000EB7200234FF0280CC0F80210C28006498D
:1085A000064A0370A0F808C0C0F80A104382C0F859
:1085B0000E2070474A01B400C2010E01960044002B
:1085C0000346012200205A77704700BF826908B530
:1085D0000346006BD96A02449A6101B188470020C2
:1085E00008BD00BF436A02461B681B6A5B685B7874
:1085F00013F0010008BF5077704700BFC26281616D
:10860000704700BF704700BF043070470C4B93F8B1
:108610009C22D3F8981202440144D2B2C3F89812B3
:1086200083F89C2293F89C22120605D593F89C228D
:1086300082F0800283F89C22024B01221A7070475C
:10864000F8160120000001202DE9F84F164FD7F849
:10865000A052ED0A23D00026DFF850A007F52979B3
:10866000B0467419D7F8A4124FF01003524648BF11
:108670000134D1F828B04846C7F8D0826410E1022E
:10868000D8470F280BDD094B03F1100153F8042BD9
:10869000013207D18B42F9D12546B542E1DCE8022F
:1086A000BDE8F88F661CF8E7F816012000000020EE
:1086B000194BD3F8D812D3F8DC228A1A322A15D8EB
:1086C000D3F8F0228A4200D37047D3F8E022F2B107
:1086D00010683231928810B44469C3F8F012224213
:1086E0005DF8044B18BF120482617047D3F8E012A2
:1086F00049B193F8EC22888802F00102096812015E
:1087000000FA02F28A610022C3F8F0227047323187
:10871000C3F8F012704700BFF8160120074BD3F8DA
:10872000E0224AB193F8EC32918803F00103126819
:108730001B0101FA03F3936100207047F816012032
:10874000044B4FF4007C0020D3F80033A2F800C0A3
:108750000B607047F8160120002070470120704719
:108760000120704700207047134BD0F8D8105B6889
:10877000D0F8E02010B50446581A824200DC22B935
:10878000D4F8E4200A44C4F8DC2094F8D020C4F8DB
:10879000D830012A05D0D4F8D4300133C4F8D4300D
:1087A00010BD04F1E801201D0EF006FED4F8D4300F
:1087B0000133C4F8D43010BD001000E0CB070DD455
:1087C00030B590F828308DB0C468012B07D0B4F1D3
:1087D000807F01D9012303770DB030BD70471A4B5C
:1087E000456AD3F83013D3F89432B1EB930F4FEAC4
:1087F00093024FF0020306D252085B0091429BB2F3
:1088000001D2FF2BF8D9B4F1807FAB80E4D90122EB
:10881000002301A9B7240277284604928DF814207A
:108820008DF828208DF804400B93CDE9021302A99E
:10883000CDE90633CDE908330EF0BEFD2A68136A90
:10884000002BFCD1C8E700BFF816012030B590F826
:1088500028308BB00446012B08D0407F10B901208E
:108860000BB030BD002363770BB030BD456A2B6879
:108870001A7B22BB637F002BF1D013490220002317
:1088800001220290081D8DF80C208DF820200993FC
:10889000CDE9001069462846CDE90433CDE9063319
:1088A0000EF08AFD2A68136A002BFCD1074B5B7D12
:1088B000D84303F0010300F001006377D4E71B6A9B
:1088C000002BD7D00020CBE71000002000000020B4
:1088D00030B504468BB094F82830012B08D0637F64
:1088E0000BB10023637701200BB030BD1B6A23B1AD
:1088F000656A2B681A7B002AF8D1637F002BF2D0BF
:1089000010490220002301220290081D8DF80C203E
:108910008DF820200993CDE9001069462846CDE95D
:108920000433CDE906330EF047FD2A68136A002BA5
:10893000FCD1054B5B7D03F00102DB076277D2D5EA
:10894000C9E700BF1000002000000020214A0023DA
:1089500030B5044695B0101D1F4D069301900220BE
:108960000B931093139311930290207F0092049520
:10897000CDE90E3301238DF80C3007938DF82030AC
:108980008DF834308DF8483002F10803083A059329
:10899000031D0A920C93114B0993636A1A68136AB8
:1089A000002BFCD1A0B10E480A0E00F11A0342764A
:1089B0000A0A9970080C69465A701870606A0EF0BD
:1089C000FBFC636A1A68136A002BFCD115B030BD3A
:1089D000044BEDE720000020E5850008C185000874
:1089E000000000201900002010B594B00446502269
:1089F0000749684644F042F96946606A0EF0DCFCBB
:108A0000636A1A68136A002BFCD114B010BD00BF52
:108A1000B0EE0408F8B50546406A0068046A002C08
:108A2000FCD12C7FA869002C36D0234E040E0527DC
:108A300086F82D402E36B0704FEA104C000A1F4CBD
:108A400086F800C0012B70704FF000000E6867635D
:108A500026641668A6642E63A06520D0022B1AD166
:108A60005368012220651E444968E365144B84F86D
:108A70004C0061652E6384F860206366114B6A7F49
:108A8000A3F11401686A002A08BF19460EF094FC8D
:108A9000EB6A5BB1286BF8BD04270B4ECBE7084AA5
:108AA00084F84C306065E0652265E7E76B6A1A6818
:108AB000136A002BFCD1EDE700000020000001202C
:108AC000CD850008180001202D00002000B583B0DE
:108AD0008161019201A9049A00930123C2626A464E
:108AE000FFF798FF03B05DF804FB00BF70B51D46AB
:108AF000436A94B006461B681C6A002CFCD1324BBA
:108B00000B9203F13C0231480694009203F14002BB
:108B1000049003F134000192022205900292012296
:108B20008DF820408DF80C208DF834208DF84820E9
:108B3000327F0C95101D1394CDE90944CDE90E4404
:108B4000CDE910440790002A3CD00A0E363303F8D2
:108B5000012C0A0C99701E4C090A1A705970D4F82D
:108B60009422D4F830339108706AB3EB920F4FF02F
:108B7000020206D2490852008B4292B201D2FF2A69
:108B8000F8D9737F8280DBB169460EF015FC706AFC
:108B900003681A6A002AFCD1D4F894320222D4F86D
:108BA00034439908B4EB930F06D2490852008C4223
:108BB00092B201D2FF2AF8D98280284614B070BD43
:108BC00005A9E2E73533C4E700000020E585000889
:108BD000F8160120F8B50C4B1D685A691540054080
:108BE0005D617DB1094F0126B5FA85F4C4F11F041A
:108BF00007EB840306FA04F4D3F8380303689847B4
:108C0000A543F1D1F8BD00BF003C0140F81601209A
:108C100002692DE9F843C36812EA030828D0054623
:108C20000E464FF00047B8FA88F327FA03F21B3BD1
:108C3000D24308EA02082A61042B16D8DFE803F0C1
:108C40003B30251A0300B36A002B3FD003F1FF39F4
:108C500000231FFA89F9B362746A34B1236820468D
:108C6000494698476468002CF8D1B8F1000FDAD172
:108C7000BDE8F88370680028F7D0696B036889B293
:108C80009847B8F1000FCED1F2E7B0680028ECD0D9
:108C9000A96B036889B29847B8F1000FC3D1E7E721
:108CA000F0680028E1D0E96B036889B29847B8F111
:108CB000000FB8D1DCE730690028D6D0296C0368F2
:108CC00089B29847B8F1000FADD1D1E7EB6A1FFA2E
:108CD00083F9C1E78269F0B592F8DC308BB00546C4
:108CE000012B27D0023B012B2FD892F84C31EC46B8
:108CF000D2F89C2063F07F03154C13708669D6F878
:108D0000A0305F1C0FCCACE80F00D6F89C30CDE94A
:108D100000370FCCACE80F0094E803008CE80300A8
:108D2000694606F110000EF047FBAA6911690B6A4B
:108D3000002BFCD1D2F8A0305A8852BAEA819A8826
:108D400052BA2A82DB885BBA6B8201200BB0F0BD7D
:108D500000EF0408F0B590F8DC308BB00446D0F892
:108D6000A060012B4BD034D9023B012B2ED890F8B8
:108D70004D31EC46D0F89C2063F07F03434D1370D7
:108D8000D0F8A0305F1C0FCDACE80F00D4F89C30B9
:108D9000CDE900370FCDACE80F0095E803008CE873
:108DA0000300694604F110000EF006FB2269136A05
:108DB000002BFCD173885BBAA4F8D030B3885BBABF
:108DC000A4F8D230F3885BBAA4F8D43001200BB0F9
:108DD000F0BDD0F89C304FF0FF3205211A605A6088
:108DE0009A60DA60D0F8E030C0F8F010B3F57A7F1E
:108DF0001FD8032380F8DC3001200BB0F0BD90F8C1
:108E00004C2190F84D319B1A5B100133DBB236F8E0
:108E1000132006EB430653BAA0F8D03073885BBA30
:108E2000A0F8D230B3885BBAA0F8D43001200BB0E0
:108E3000F0BD03691A7B2AB35B691BB390F89830C5
:108E400003B390F84C310122D0F89C0063F07F030B
:108E5000C4F8A4400E49037094F84D3194F84C01C5
:108E600084F800211B1A84F8DC20D4F8A0200733F2
:108E7000C4F804110132D4F89C10C4E93E23C4F8AC
:108E8000F410A3E7022384F8DC309FE700EF040826
:108E9000018000082DE9F041304F07EB401898F8A9
:108EA00054340BB9BDE8F08100EB80030E4600217D
:108EB000044607EB4313450193F8362683F836162C
:108EC00088F83A2445F0A8FDB8BB25483D4400EB9E
:108ED0004410A5F8386445F0C3FD3B78D5F850241C
:108EE000A3B1D5F83C140124D2F8AC308C4003F186
:108EF000C001420010F4004F90B202D15A682243E0
:108F00005A600C339942F4D1BDE8F081D5F83C1495
:108F10000124D2F8AC3001F1100203F1C0019440F9
:108F2000420010F4004F90B202D15A6822435A60B6
:108F30000C338B42F4D1BDE8F0810A4B93F8F02357
:108F400002EB420203EBC203234493F89D63002E1D
:108F5000BBD0012388F83A34B7E700BFE001002016
:108F600018060020F81601202DE9F04F364D83B089
:108F70002B781BB9012003B0BDE8F08FDFF8CC805F
:108F800005F63836D5F834AB05F5876BD8F8D83206
:108F900005F6186700244FF6FF79019312E0B0F54B
:108FA000606F43D0B881B0EB0901019A304618BF19
:108FB00001210EF039F801345C360BF1200B143727
:108FC000082C2CD054452ADADBF81800DBF80420F2
:108FD000D0E93D0145F00CFD4FF6FE7398F879237A
:108FE000984214D0542A04D1B8F87C230132A8F84E
:108FF0007C23D5F8202E484502F10102C5F8202E29
:10900000CDD1D5F81C2E0132C5F81C2ECBE7542A41
:10901000D1D1B8F87E230132A8F87E23CBE7012313
:10902000012085F81C3F03B0BDE8F08F98F8F023CD
:1090300002EB420208EBC202224492F89D230D2A61
:10904000B0D18022BA77AEE7E0010020F816012007
:109050002DE9F0472F4F0EF04DFEDFF8C09080460F
:109060007E6800202C4C002E48DD00234FF48671D2
:109070001D4601FB0372013392F805219E4245EA29
:109080000205F6D128435FFA80FAD9F80430C3F319
:10909000080383BBEFF311836BBB4FF0E02CD4F8D4
:1090A000D832DCF81810D4F8D8229342F7D1D4F88B
:1090B000F4239142F3D8D4F8F8C34FF47A7202FB48
:1090C0000CF0401AB0FBFCF002FB0300A0EB08031D
:1090D000B3F5FA6FCCBF002005F001000028C2D123
:1090E000BAF1000F04D00C4B93F87923542A08D01E
:1090F0005046BDE8F0870EF0BDFCE7E7824600254C
:10910000C3E7B3F8802350460132A3F88023BDE8BB
:10911000F08700BFE0010020F816012000ED00E01C
:1091200010B5044642F082FE0146204689B2BDE8F1
:109130001040AFE638B50B4D00EB400005F274531C
:10914000C40003EBC003254493ED027AD3ED037A08
:10915000E7EE007AB0EE670A42F068FED5F87435A3
:10916000186038BDE0010020F8B545F039FC78B34F
:109170001A4F7D68002D11DD3846002410F8086B69
:1091800016B1037F012B1DD04269013400F58670B2
:109190001368AC4243F001031360F1D10EF0AAFD55
:1091A000D7F8204F002C0CDD0D4B03EBC4041968DD
:1091B000083333F8042CC868A34242EA0002CA60AC
:1091C000F5D1F8BD002380F8FC30FEF767FFDBE740
:1091D00041F09AFE0028CBD1F8BD00BFE00100208D
:1091E00004110020F8B5830AA3F58013522B52D83E
:1091F00004465748034493F8F4030D284BD8554DC3
:10920000860105EB8013D3F80074A74243D00139DF
:10921000C3F8004489B2C3F80C14D5F89412B1FB1A
:10922000F2F100220139C3F81024C3F80824C3F86E
:10923000142493F83D24C3F8041402F0FF015AB338
:1092400045490223AF1901EB8011204687F83D34D0
:10925000043139F093FB0123B4F1804F87F83D349A
:109260003E4BA4EB0303B3FA83F34FEA531316D038
:10927000ABB93B4A944257D002F58062944253D036
:10928000384902F57C42944218BF8C422FD002F537
:10929000705294422BD0F8BD83F83C14D0E7AA1941
:1092A00092F83C140129F6D0022182F83D142E498F
:1092B000A06801400020A160012182F83D14AA1994
:1092C000022182F83D146268A16803B908B122F452
:1092D00070022E4422F0700221F080010120002350
:1092E0006260A16086F83D0486F83C34F8BDAA1996
:1092F00092F83C140129CED0022182F83D141A497B
:10930000A06801401948A1600121201A82F83D148B
:109310000021B0FA80F082F83C14124A40099442CD
:10932000CDD00028CBD1F8BDAB1993F83C24012A4D
:10933000B1D002210C4A83F83D14A0680240A2601B
:10934000012283F83D2483F83D146268A168C0E7D8
:1093500068EA0408F8160120F81A0120000001400C
:1093600000040040000C00408800FEFF00040140A3
:109370002DE9F843DDF820800F4616460021202213
:1093800004461D4643F0A8FBB8F1000F0CD0D8F8F6
:109390000030B8F80A20E3811B0C2382D8F804308F
:1093A0006282E3821B0C2383384643F029FBF306D9
:1093B00019D4431EB8B107EB000C01E0013B12D3F6
:1093C0001CF801EDBEF12E0FF8D1C01A03F101090E
:1093D000421EB944032AA8BF0322082BA8BF0823B2
:1093E00090461A4606E008280246B9464FF00008A3
:1093F000A8BF08224FF0203339462046236063601F
:1094000043F03CFC164B04F10800424649462381D8
:10941000837043F033FC611EE21D11F801CFACF103
:109420006103ACF1200C192B98BF81F800C0914268
:10943000F3D104F10A0011F8013FA3F16102203BCE
:10944000192A98BF0B708142F5D1182365832D0C22
:10945000E6722373099BA582E361BDE8F88300BF30
:10946000202020002DE9F04FDFF8509485B0D9F886
:10947000D802C9F8DC02002B5ED00C46154601F577
:10948000FE7603EB020B1DE0002D62D0D9F80C3301
:10949000AB4200F0C580D9F80833AB4200F0F7804A
:1094A000D9E9C431AB424BD88D42C0F07281691A00
:1094B00020463CF0B9FC013504F5007406F5007651
:1094C0005D4539D0D9F81823AA42DDD8AA1AD9F8AF
:1094D0002873D308396B02F0070802338B4202D39A
:1094E000BA6B93420BD93946184603933CF06CFC97
:1094F000039B0746002800F06C81C9F828033A79DD
:10950000002A40F01D81D7F828A0BAF1000F00F022
:1095100059813A6B013520464FF400719B1AFA6865
:1095200004F5007406F5007608EBC3083B4602EB31
:109530004822D0475D45C5D1002005B0BDE8F08F79
:109540008D42B4D24FF400720021204643F0C4FA99
:10955000B1E74FF400722946204643F0BDFA80235C
:10956000CA4A84F8BE310C2384F8C231D9F80813F2
:10957000D9F800339142C4F8C611C4F8CA3100F3D7
:109580000D81C34A013BC34F82FB0102C81787FB11
:1095900001C70A44C0EB6212C0EB2730BE4F87FB05
:1095A00002C7C2EB821C84F8C1018010A1EB0C0140
:1095B000174420F03F0001310843D117C1EBE711F8
:1095C00084F8C0010A4484F8BF21B04A934200F3F2
:1095D000F180AF4AAF4882FB0312D91780FB0370BA
:1095E0001A44C1EB6212C1EB2031AB4880FB027020
:1095F000C2EB821784F8C5118910DB1B104421F0DF
:109600003F0101331943D317C3EBE01384F8C411AE
:109610001A4484F8C3214AF65523A4F8FE314AE7D8
:109620004FF0FF3300274FF4F072201D84F8EC3127
:10963000394684F8ED3184F8EE3184F8EF31522365
:10964000237063706123A37084F8E7314123E370D2
:1096500084F8E631722384F8E43184F8E531D9F8EE
:109660002033C4F8E83143F037FA5523C4F8F071D9
:1096700084F8FE316FF05503C4F8F471C4F8F87142
:1096800084F8FC7184F8FD7184F8FF3113E74FF41E
:1096900000720021204643F01FFA804B022203CBC8
:1096A00045F6EB032274227323809023A273A370E8
:1096B000F82384F82C200822C4F803006273C4F84D
:1096C00007106375D9F80813D9F800335B1A2362C1
:1096D000D9E9C4135B1A4AF6552163620023E37289
:1096E000E3736377A377E37784F82D3084F82E3023
:1096F00084F82F3084F83130694BA3613E232377FF
:10970000012384F83030802384F84030654BC4F85E
:109710004230654B84F84620A4F8FE11634A03CB1F
:10972000C4F84B101988C4F847009B78A4F84F1070
:1097300084F8513003CAC4F85200C4F85610BAE68F
:109740004FF400720021204643F0C6F93B6CB8F19B
:10975000000F45D104F1200A002B00F081803B6B03
:10976000112253492046CDE90088FFF701FE3B6CEA
:109770001A6C002A00F081801B6B504611224D4963
:10978000CDE90088FFF7F4FD04F1400A4FF4E078DA
:1097900071E0E91A20463CF047FB8CE6FF22013BD2
:1097A00084F8C1214FF6FF72A4F8BF21374A9342D3
:1097B0007FF70FAFFF2384F8C5314FF6FF73A4F88E
:1097C000C33128E751464FF40072204643F084F934
:1097D00071E6231F384A43F8042F9E42FBD16AE604
:1097E000002B7F6C14BF02230123C3EB0813002F4F
:1097F0003FF461AE013BBF6C002B01DD002FF9D1BE
:10980000A2464FF40078002F3FF455AE0AEB080350
:1098100003959A460BE00025A8F12008CDE900E564
:10982000FFF7A6FDBF6CCFB1B8F11F0F16D93D7978
:1098300007F11C0E112239683B6BAAEB0800002DC2
:10984000E9D17A79A8F120083D6942F02102CDE9F9
:1098500000E5FFF78DFDBF6C002FE5D1039D2AE6E3
:10986000CDE9008843464FF4F0780822D9F8041374
:109870002046FFF77DFD7F6CC5E750464346112229
:109880000C49CDE90088FFF773FD7DE7FF03FB007E
:1098900083200882975545418180808000640508B7
:1098A0003F00FF0029940E0D0C640508186405089C
:1098B000F8630508FC630508DEADBEEFF81601206D
:1098C00038B5044690F8210100B938BD0DF0C6FE48
:1098D0002146054688B126220B4BC28041F80C3F39
:1098E00040F0FEF8AA8809494FF00043B2FA82F22C
:1098F0000868D34003430B6038BD034B41F80C3F6D
:10990000BDE8384040F0ECB869870008003C0140F1
:1099100010B490F8443000F10801484A012BC2F815
:10992000C0176DD08368464CD968A34221F460010A
:10993000D960D96841F46001D960996B21F4401174
:109940009963996B41F480119963996B21F4F84103
:109950009963996B41F488419963996821F4702166
:10996000996099689960996821F4401199609968A3
:109970009960596821F480615960596821F48051D7
:10998000596059696FF30B0159615969596148D0A0
:10999000D9682B4C21F0E061A342D960D96841F02D
:1099A000E061D960996B21F440119963996B41F49E
:1099B00080119963996B21F478219963996B41F433
:1099C00010219963996821F47021996099689960D0
:1099D000996821F44011996099689960596821F457
:1099E00080615960596821F48051596099696FF319
:1099F0000B019961996999611AD0002380F844306C
:109A00001048114B848DC18D408D091BC2F8C84789
:109A1000C2F8C4075DF8044B93FBF1F3C2F8CC37EE
:109A20007047D4F8041341F40001C4F80413AFE7FD
:109A300006494B6843F400034B60DEE7F81601204B
:109A400000200140007AF01F80380100002301400F
:109A5000704700BF014838F07FBC00BFDC1E01200A
:109A6000084810B4D0F8E437D0F8184899691A6853
:109A70002CB1234600F2E4705DF8044B18475DF802
:109A8000044B7047F8160120014838F065BC00BF50
:109A90003C1F0120084810B4D0F84438D0F878486A
:109AA00099691A682CB1234600F644005DF8044B0E
:109AB00018475DF8044B7047F8160120014838F04C
:109AC0004BBC00BF9C1F0120084810B4D0F8A4383C
:109AD000D0F8D84899691A682CB1234600F6A4003A
:109AE0005DF8044B18475DF8044B7047F8160120E9
:109AF0002DE9F04F054683B0681C00F0B780032DB8
:109B000000F3B48005EB4507984C4FEA450904EB98
:109B10004716D6F8E4C706F2E477BCF1000F00F070
:109B2000A580FF2A4FEA410A7BD0184696F82538CF
:109B3000202B40F0958096F82438012B00F090807F
:109B4000012386F82438D4F8506905E0D4F8501978
:109B5000891B192900F28E80DCF8183013F4004BB1
:109B6000F4D109EB05080C9B0096514604EB48180C
:109B7000C8F808382223C8F818B888F825384023D0
:109B800088F826380A23C8F828B8A8F80E083846F6
:109B90003CF0E0FB00287FD1B8F80E389BB2FF2BD9
:109BA00040F2BB80D8F8E417FF237148A8F80C38BE
:109BB0004B68704A034043EA0A031A434A6009EBC0
:109BC000050B04EB4B1804E0D4F850399B1B0A2B0F
:109BD00037D88A6912F00402F6D04A6AD8F80838F1
:109BE0001A70B8F80E38B8F80C28013B013A9BB24D
:109BF00092B2A8F80E38D8F80838A8F80C28013323
:109C0000C8F80838B8F80E389BB20AB9002B46D10C
:109C1000B8F80E389BB2002B00F09180D8F8E4170A
:109C2000D7E796F82528202A1AD196F82428012A61
:109C300016D00C9A514638463CF076FA80B901208D
:109C400015E04D44202104EB4515D5F8283885F85A
:109C500024280B43C5F8283885F8251885F82628C8
:109C6000B4F8543901339BB2A4F85439002003B03E
:109C7000BDE8F08F09EB05032020002104EB43131E
:109C8000D3F8282883F824180243C3F8282883F837
:109C9000250883F82618E3E788F824B8E0E7D8F821
:109CA000E41704E0D4F850399B1B0A2B24D88A69A6
:109CB00012F08002F6D0B8F80E389BB2FF2B0BD909
:109CC0004B682D4A13402D4A43EA0A031A43FF23E7
:109CD000A8F80C384A609BE7B8F80E3826489BB2C3
:109CE0004A68A8F80C38DBB202404AEA034313433F
:109CF00043F000734B608BE709EB0503202004EB76
:109D00004313D3F8281883F824280143C3F82818EC
:109D100083F8250883F82628A2E7B8F80E38D8F883
:109D2000E4179BB212484A68A8F80C38DBB202402C
:109D30004AEA03431343124A1A434A603FE7314653
:109D400038463CF09DF900288AD1D8F8E437202124
:109D500004EB4B1B0B4CD9615A6822405A6088F8BF
:109D600025188BF8240888F8260868E7F8160120DB
:109D7000009800FC0024FF81009C00FC0000FF0113
:109D80000024008200E800FE30B40469002341682A
:109D90004025E46882690C315462446995605360DF
:109DA00093631160C2E90333C2E90533C2E90733A3
:109DB000C2E90A33C2E90C3384B1C269E068936333
:109DC00050621160C2E90133C2E90333C2E90533CD
:109DD000C2E90733C2E90A33C2E90C3330BC704729
:109DE000114A037A0168D35C10B4CC58CA1824F025
:109DF0000104CC501368DB07FCD4037D1F2B09D969
:109E0000203B20225DF8044B02FA03F343F01803D1
:109E1000CB60704720225DF8044B02FA03F343F055
:109E200018038B60704700BFB4640508F0B506687E
:109E3000356A00295DD12B68AC68B769002B60D00A
:109E40009C46344B0CEA0303B3F1005F5DD00CF089
:109E50001F0104F11F032CF01F02194421F01F0100
:109E6000BFF34F8F00290BDD114402F12003DFF80F
:109E7000A8E08B42CEF868221A4603F12003F8D1FD
:109E8000BFF34F8FBFF36F8F02684FF480637B6126
:109E90005369C7F804C03C6253B36B68F569002B83
:109EA00035D01E461B4B3340B3F1005F1BD006F08C
:109EB0001F0104F11F0326F01F02194421F01F01A6
:109EC000BFF34F8F00290ADD114402F1200312482D
:109ED0008B42C0F870221A4603F12003F8D1BFF379
:109EE0004F8FBFF36F8F4FF480636E606B612C6296
:109EF000F0BDEC69002CFBD06B691435B769002B01
:109F00009ED1DFF81CC03246C1E73246BDE7034EA2
:109F1000EBE700BF0000FFFF00ED00E0480000207D
:109F2000440000202DE9F0410468D4E904351A7D8D
:109F3000D3E90061002D4DD01F2AA86138D8202018
:109F40002F6800FA02F242F01802B2602A7D1F2A3E
:109F500039D9203A202000FA02F242F01802FA60C1
:109F60006A680020086010603046116841F01001F6
:109F7000116093F80880A26941463EF0EBF82D7A13
:109F8000E269384629463EF0E5F8274B626813F847
:109F90000800595D335843F0010333507B5843F0B8
:109FA00001037B50536843F003035360BDE8F08125
:109FB000203A20202F6800FA02F242F01802F260E4
:109FC0002A7D1F2AC5D8202000FA02F242F018028A
:109FD000BA60C5E71F2A98611ED8202000FA02F255
:109FE00042F01802B260002230460A600A6842F06D
:109FF00010020A601D7AA26929463EF0ABF80A4BAE
:10A000006268595D735843F001037350536843F01D
:10A0100002035360BDE8F081203A202000FA02F2EA
:10A0200042F01802F260DEE7B464050810B103687C
:10A0300082889A61704700BF18B1838802681B0448
:10A040009361704708B51D200DF008FB08B18379B6
:10A050004BB11E200DF002FB08B1837903B108BD9E
:10A060005523C38008BD5523C380F2E7D3B2012B2B
:10A0700023D802EB420270B54FEA820E104C002248
:10A0800023460EF1080503E001321C33172A12D0D3
:10A0900093F800C08445F7D193F801C08C45F3D103
:10A0A0005E59002EF0D0C2EBC2020EF1040303EBA6
:10A0B0008203E01870BD002070BD0020704700BF13
:10A0C000A8EF040810B40C4C002304F6581C01E05F
:10A0D000152B0CD003EB430201331CF80210814214
:10A0E000F6D1144494F95A095DF8044B70474FF0C7
:10A0F000FF305DF8044B7047F8160120D3B2022BF5
:10A1000021D802EB420270B54FEA820E0F4C0022BA
:10A1100023460EF10C0503E001322C33172A10D030
:10A120001E68B042F8D193F804C08C45F4D15E5952
:10A13000002EF1D02C210EF1080301FB0233E018B0
:10A1400070BD002070BD0020704700BF68EA0408A1
:10A150000348D0F890300BB180301847704700BFEB
:10A16000000001200348D0F8B4300BB1A4301847E8
:10A17000704700BF000001200348D0F8D8300BB171
:10A18000C8301847704700BF000001200348D0F8CE
:10A19000FC300BB1EC301847704700BF00000120C5
:10A1A0000348D0F8203113B100F588701847704784
:10A1B000000001200348D0F8443113B100F59A7033
:10A1C00018477047000001200348D0F8683113B1E8
:10A1D00000F5AC7018477047000001200348D0F824
:10A1E0008C3113B100F5BE70184770470000012094
:10A1F0000348D0F8B03113B100F5D070184770475C
:10A20000000001200348D0F8D43113B100F5E2700A
:10A2100018477047000001200348D0F8F83113B107
:10A2200000F5F47018477047000001200348D0F88B
:10A230001C3213B100F5037018477047000001206D
:10A240000348D0F8403213B100F50C70184770473E
:10A25000000001200348D0F8643213B100F51570F6
:10A2600018477047000001200348D0F8883213B126
:10A2700000F51E7018477047000001200348D0F811
:10A28000AC3213B100F52770184770470000012069
:10A2900001380E4B0E4A00EBC000116B03EB80033C
:10A2A00010B4D3F8803083B00A4CA34214BF4FF4EB
:10A2B00080034FF4001319431163126B1340019391
:10A2C000019B03B05DF8044B704700BF0000012004
:10A2D00000380240006002400138F8B500EBC000D1
:10A2E000124C1D46124B04EB800417460E46D4F860
:10A2F0008000984214BF962095203CF04DF994F9C7
:10A300009500B909C4F89060C4F898503CF018F969
:10A3100094F99530002B07DB03F01F0001225B0945
:10A320000449824041F82320F8BD00BF000001200D
:10A330000060024000E100E0800AA0F58010522891
:10A3400008D8054B034493F8F4330D2B02D8034A85
:10A35000D05670470020704768EA0408A4640508D6
:10A360000120FEF737BC00BF0220FEF733BC00BF60
:10A370000420FEF72FBC00BF0820FEF72BBC00BF57
:10A380001020FEF727BC00BF4FF47870FEF722BC08
:10A390004FF47C40FEF71EBC30B1036882881B6915
:10A3A0001A4214BF01200020704700BF2DE9F04F72
:10A3B0000E4683B004461546002800F0C7800268A8
:10A3C000644B13449B0A644AC6F34119134493F83F
:10A3D000C4073CF0E1F8C6F38103B4F804E006F0EA
:10A3E0000301246801939EFAAEF0B0FA80F001F107
:10A3F000FF383EFA00F367D001220327009603E0FE
:10A4000001303EFA00F35ED002FA00F313EA0E03C5
:10A41000F6D0D4F800C093FAA3FBBBFA8BFB93FAF7
:10A42000A3FABAFA8AFA4FEA4B0BB8F1010F4FEAD6
:10A430004A0A07FA0BFB01FA0AFA2CEA0B0C4CEA5F
:10A440000A0CC4F800C04ED9D4F80CC093FAA3FB90
:10A45000BBFA8BFB93FAA3FABAFA8AFA4FEA4B0BD0
:10A4600002294FEA4A0A07FA0BFB09FA0AFA2CEA10
:10A470000B0C4CEA0A0CC4F80CC0C1D193FAA3FA35
:10A48000BAFA8AFA4FEA132CBAF1070F45DCD4F86E
:10A4900020C093FAA3FABAFA8AFA93FAA3F34FF018
:10A4A0000F0BB3FA83F34FEA8A0A01309B000BFAD1
:10A4B0000AFA05FA03F32CEA0A0C4CEA03032362B6
:10A4C0003EFA00F3A0D1009EB8F1010F08D86268EF
:10A4D000C6F3001322EA0E020EFB03F3134363607C
:10A4E00003B0BDE8F08FD4F808C093FAA3FBBBFA21
:10A4F0008BFB93FAA3FABAFA8AFA4FEA4B0B019E46
:10A500004FEA4A0A07FA0BFB06FA0AFA2CEA0B0C86
:10A510004CEA0A0CC4F808C096E7D4F824A09CFAC8
:10A52000ACFBBBFA8BFB9CFAACF34FF00F0CB3FA0D
:10A5300083F34FEA8B0B9B000CFA0BFC05FA03F339
:10A540002AEA0C0A4AEA0303636259E74FF0FF3331
:10A5500039E700BF0000FEBF68EA040800B125E744
:10A5600070472DE9F84FBA4F6023064603FB00738E
:10A57000D3F8D047D3F8D887D3F8DC57002C00F0B5
:10A580005C81B8F1000F04D098F80630002B40F041
:10A5900054811DB1AB79002B40F04F81731CDBB2AD
:10A5A000B8F1000F04D0152288F8073088F806208B
:10A5B00015B11622EB71AA714FF0600A207E3BF0B4
:10A5C000EBFF29460AFB06FA404640F067FA404690
:10A5D00007EB0A09042240F2145899F8E037002BDF
:10A5E0000CBF4FF01E0B4FF03E0B5946FFF7B6FF66
:10A5F0002846984D042259465544FFF7AFFF4C2298
:10A600000021284642F068FAD9F8D0379FED927AB7
:10A61000B0EE084A5B68F7EE003AB9F8E2A74FF0EF
:10A62000000CC9F8E4378D4B9FED8D5A9A688D4B1D
:10A63000C2F38222134493F8CC27D7F89432D34044
:10A6400007EE903AF8EE677AC7EE275A07EE90AA1F
:10A650009FED857AF8EEE77AC7EE274ADFED837A39
:10A66000B0EE007AE5EE877AA5EE875A25EE844AA9
:10A6700037EE856A74EEE72ABAF5C87F0CF1010E51
:10A68000D5BF4FF4967278226423322307EE90EA06
:10A69000D8BF4FF416791344A2F13202F8EEE76AFC
:10A6A000C8BF4FF4827907EE903AD4BF41464FF4C9
:10A6B000FA7166EEA56AB8EEE77AC7EE267A07EE7B
:10A6C000102A01EB0902B8EEC77A37EE447A77EE2A
:10A6D000E37AFCEEE77A17EE903AC7EE267AFCEEC4
:10A6E000E77A17EE900A07EE909AB8EEE73A07EE8F
:10A6F000902AF8EEE77A23EE243A83EE277A37EEB3
:10A70000453A32EEC77AC3EE267A77EEE37AFCEE6C
:10A71000E77A17EE901AC7EE267A77EEE37AFCEE28
:10A72000E77A17EE902A02F1020909EB010BB0EE6D
:10A73000467A07EE90BAF8EE677AA6EEA77AF4EEBC
:10A74000C74AF1EE10FA7CDC43EA00095FFA89F9A6
:10A75000B9F10F0F77D841EA02091FFA89F9B9F167
:10A76000FF0F70D81B05000403F07F6392B200F462
:10A770007F0003433E4843EA0C7300EA01210B4388
:10A7800013436022284602FB06760027C6F8E83706
:10A790000123C6F8EC77C6F8F037C6F8F477C6F8A8
:10A7A000F877C6F80078C6F804783FF027F896F8EE
:10A7B0002538202BD9B21AD196F82438012B16D07F
:10A7C000242386F82538D6F8E4371A6822F00102E7
:10A7D0001A601A6822F480521A601A681A601A689D
:10A7E00042F001021A6086F8251886F824780021C4
:10A7F00094F91A003BF0A4FE94F91A20A37E002AD3
:10A8000008DB5909012203F01F0302FA03F3194A76
:10A8100042F82130002194F919003BF091FE94F99F
:10A820001920637E002A08DB5909012203F01F0367
:10A8300002FA03F30F4A42F82130BDE8F88FF446DC
:10A840001AE7013171E7BEF10F0FF8D1002398E745
:10A85000F8160120DC1E0120286B6E4E00380240E5
:10A860000000164368EA040800247449000070429E
:10A8700000FFFF0000E100E02DE9F84F6D4EC0EB56
:10A88000001306EBC303D3F89849002C00F08A802C
:10A8900093F8088A0546070140463BF07DFE0122F9
:10A8A0004FEA581308F01F08013B02FA08F2032B85
:10A8B00008D8DFE803F0ADB302B95F490B6A23EAB9
:10A8C00002030B627B1B05F1010B06EBC3035FFA6E
:10A8D0008BFB93F89C090CF0C1FE804618B1122343
:10A8E00080F807B083717B1B06EBC30393F89D09C7
:10A8F0000CF0B4FE824618B1132380F807B08371C0
:10A900007B1B06EBC30393F89E090CF0A7FE814660
:10A9100018B1142380F807B083717F1B50462E2195
:10A9200006EBC70696F8A029FFF718FE96F8A129AE
:10A9300048460E21FFF712FE96F89F292E21404629
:10A94000FFF70CFE23683D4A23F040039442236046
:10A950002AD03B4B9C4231D103F500331A6A42F4B2
:10A9600080421A621A6A22F480421A62636843F4CF
:10A970008053636023685B060CD4206840F2173272
:10A980003049314B01400A4322606268134043F46E
:10A99000E0636360E36923F40063E361236843F0E9
:10A9A00040032360BDE8F88F234B5A6A42F480527B
:10A9B0005A625A6A22F480525A62D7E7234B9C4269
:10A9C0001BD0234B9C420DD0224B9C42CED103F591
:10A9D00068435A6A42F480125A625A6A22F4801218
:10A9E0005A62C3E703F582335A6A42F400525A624C
:10A9F0005A6A22F400525A62B8E703F5FE331A6A23
:10AA000042F400421A621A6A22F400421A62ADE766
:10AA100009494B6923EA02034B6153E706494B6A34
:10AA200023EA02034B624DE703490B6923EA020361
:10AA30000B6147E7F8160120003802400030014062
:10AA4000003800404000FFFFFBF0FFFF003C0040EB
:10AA5000003401400050014008B10022A6E47047D4
:10AA60002DE9F04191F80380B8F1000F03D10027E0
:10AA70003846BDE8F08100F110060C46054689789D
:10AA800030460CF03FFB07460028F0D040460CF063
:10AA9000E5FDA861237880460133DBB210B1C371B4
:10AAA0002223837140460D21FFF7D6FF4046FFF772
:10AAB000BDFA0F4AD2F8D832632BFBD90D480CF0FF
:10AAC0000DFBDFF838800C4BA88202E058F8043FF9
:10AAD00053B13046984703460028F7D0286985F8D7
:10AAE000D83040F0ABF8C3E7E0780CF015FEBEE7D5
:10AAF000F816012040420F00190004083CF2040837
:10AB000070B50E4CD4F8346B002E15DD04F5876457
:10AB1000002503E001352034B5420DD0237F002B02
:10AB2000F8D0E06800220028F4D00135217DFFF73D
:10AB30003DFC2034B542F1D1012070BDE001002080
:10AB40002DE9F04F002393B0A64E0293A64BA6F535
:10AB50000E6ADFF89C9293F88AEBA44D0EF1FF3752
:10AB6000CDF80CE0FBB20193DFF898B2DBF800708F
:10AB7000BB0AA3F58013522B00F2D780534493F8FD
:10AB8000F4330D2B00F2D18015F90380039B012BC8
:10AB900000F01D81039B022B02D1B8F1080F3AD1BE
:10ABA00000242146404610F0E3FA10F069FB90F8CB
:10ABB00000C0BCF1000F18BFBCF1540F14BF4FF020
:10ABC000010C4FF0000C40F0F8800434A4B2102CBB
:10ABD000E7D1029B002B00F0B380854A0CE0534480
:10ABE00093F8F4330D2B0ED8EB5643450ED002F5F7
:10ABF00086724A4500F0A08091680B689B0AA3F515
:10AC00008013522BEBD900234345F0D14B799BF8AD
:10AC100005109942EBD10BF11C0BB345A6D1029B59
:10AC200009F586790133042B02939DD1DFF8D8A171
:10AC30000023AAF5876B01930AF59E730293DBF854
:10AC4000343B019A93426DDD674BDAF80C7093F850
:10AC5000A02B9AF810300393002F63D03B68DBF8E9
:10AC600004506448B988002D184404914FEA90209C
:10AC700040F3CE805E4E002405E0013406F5867672
:10AC8000AC4200F0C38031688142F6D1584A4FF49B
:10AC90008671DDF810C001FB0424039A019E8AF836
:10ACA0001020049A0136CAF80C70B2FA82FE032210
:10ACB000CAF81840CEF11F056800CAF80450BA71EE
:10ACC000FE7102FA00F7A16C0122D4F854803943D6
:10ACD00002FA00F002FA05F59BF80070A164216DFC
:10ACE0000143D4F8AC002165A9B2002F00F0F9802F
:10ACF00045EA08056565C3F818C0FDF7FBF920466D
:10AD00000AF1200AFDF7CAF940F201120123082EC8
:10AD10002AF8042C029A019602F1180202F8073C64
:10AD200002928CD113B0BDE8F08F019B012B7FF60E
:10AD300072AF4FF0000833E7BCF1000F7FF46BAF48
:10AD40005846FDF771F99BF805E0C3B2022B00F2FB
:10AD50008B8300F1010C284A0CEB4C0C02F57D7042
:10AD60004FEA8C0C03E02C32904200F07D83136894
:10AD70009F42F8D113797345F5D152F80C30002B6E
:10AD8000F1D01E48002142689A4212D0013124308D
:10AD90001029F8D14FF0FF3303EBC303184A02EB3D
:10ADA000830393F89C30002B7FF435AFC9F808B0CB
:10ADB00035E74B1CDBB2013BEEE7029B002B7FF437
:10ADC0000CAF0BF11C0BB3457FF4D0AE27E7B8F105
:10ADD000010F3FF4E5AE0BF11C0BB3457FF4C6AE9B
:10ADE0001DE700BF48F30408F8160120A464050815
:10ADF000E80100200000FEBF68EA0408800001208E
:10AE0000000001204CF2040818060020042C76D023
:10AE10004FF4867101FB05B10C690694002C00F01B
:10AE2000058388600130CDE90723C4B2069B542016
:10AE300081F8114181F81001691C18461E685B7980
:10AE4000CBF804100593FDF7EFF8C1B28146022953
:10AE500000F20A8300F1010E4FF0000CA7480EEB40
:10AE60004E0E079ADDF814804FEA8E0E089B06E01E
:10AE70000CF1010C2C30BCF1170F00F0F5820168C9
:10AE80008E42F5D101794145F2D150F80E100029DA
:10AE9000EED088462C2109EB4909984801FB0CF1BA
:10AEA00001EB8901DFF894920144CC4608694FF424
:10AEB000867101FB05B1C1E907800020DCF80410B0
:10AEC00041452DD001300CF1240C1028F6D18C4BCB
:10AED00093F87820BAB9542283F8794083F878201F
:10AEE00011E0CEF12F0E02FA0EF242EA080262657C
:10AEF0004FEA0C429A613A46FDF7FCF8FFE603235D
:10AF0000804A82F8A13B804B80488149814AC3F83E
:10AF10004804C3F84014C3F8502413B0BDE8F08FC0
:10AF2000411C7748C9B2013901EBC10100EB810E28
:10AF30009EF89C1008910029E5D14FF4867176485F
:10AF40004FF08C0C8EF89D4001FB05F1734C062AE6
:10AF500007914FEAA10100FB01F107985844C36033
:10AF600004F54C73C0F800C10CFB01FC01EB41017E
:10AF700003EB4C0301EB0111C0F8FC304FF054031C
:10AF800004EB810407998EF89C304FF03303C0F82E
:10AF9000B440C0F8B830624B03EB0104594BD3F80E
:10AFA000941200F03182072A5E4B5F485F4A18BF57
:10AFB0001A465F4B18BF03463046B1FBF3F3B1FBB3
:10AFC000F2F2013B511E4FF486729BB202FB05B2B6
:10AFD000A2F8BC10A2F874302366079B03F1580155
:10AFE0004F4B19440023A4F858306366E3653DF0E5
:10AFF0004DF83368059A43F0800333600C2A0ED86D
:10B00000DFE812F0AC010D000D000D008B010D000A
:10B010000D000D00CB010D000D000D0068014FF477
:10B0200086736022304603FB05B30A924FF48072A8
:10B03000596933681092012223F0010309910B92A0
:10B040000A22336000230C930F9311930223CDE95E
:10B050000D230AAA3CF0D2FE09990023B1F5807FA6
:10B0600000F0F68100F2D381102900F0FA8100F29D
:10B07000E281012900F0F381042915BF4FF4006239
:10B0800008223C23002306F11801C8580243CA5085
:10B09000069B1879002840F0A681336843F001032D
:10B0A00033600023D9F804200133904500F09781E4
:10B0B000102B09F12409F5D14FF0FF33104A03EBAF
:10B0C000C30302EB8303D3F880001A4B984214BFEA
:10B0D000962095203BF060FA059B0C2B00F27C81BA
:10B0E000064A02EB4303B3F8E0C84FF486731249F3
:10B0F00003FB05B3A3F818C0002328E068EA04089E
:10B1000000000120F8160120D8120020695901081A
:10B1100065590108715901086B4CA40738170020C4
:10B12000E801002044950800D0DD060010552200FB
:10B1300040771B00006002400411002080000120C5
:10B14000964200F080810133042B00F0908151F889
:10B150003320002AF4D1DBF8202F0132CBF8202F46
:10B160000BEBC302DB00C2F8246F19440898234696
:10B1700090228E884CEA060C0026A1F804C0BD4936
:10B18000FFF7AAF84FF4867340214FF4403003FBD9
:10B1900005B8B94A4FF4804CD8F81C502B6843F0DE
:10B1A00010032B602B6843F014032B60C4F8A860D5
:10B1B000C4E91F66C4E92866D8F82030A1670421D5
:10B1C000C4F89430C4F89C10E9B208934FF480633B
:10B1D0001039C4F89800C4F8843025F0FF00A2FBB1
:10B1E0000121D8F8B820079BC4F890204FF4805272
:10B1F000D8F80C900909C4F8882009F1180209F15F
:10B200001009226703F170029C4B1A44D8F8B4303D
:10B21000C4F88CC06367CDE905013CF09BFFD5F80D
:10B2200000E0079BC4F820E0D5F814E003F1B80271
:10B23000924BC4F824E0D5F804E01A44089BC4F803
:10B2400028E0D5F808E0C4F82CE0D5F80CE0C4F804
:10B25000DC300423C4F8C860C4F8E4304FF48063E1
:10B26000C4F8F060C4F8CC304FF40033C4F830E0D8
:10B27000C4F8E030C4E93066C4E93A664FF40066C9
:10B28000D8F80031C4F8B890C4F8D0604FF48046C4
:10B29000C4F8D830D8F8FC30C4F8D460C4F8BC3056
:10B2A000DDE905013CF056FF2B68B7F804C0636385
:10B2B0006B69A3636B68E363AB682364EB686364E7
:10B2C0002B6843F010032B602B6843F014032B60B2
:10B2D0003B68E2E433684FF486724FF480514FF0DC
:10B2E000020E23F0010302FB05B2304651610AAAA7
:10B2F000336000230C930F93119360230A934FF450
:10B300008073109301230B930A23CDE90D3E3CF08B
:10B3100075FD4FF400620423B5E64FF486721021E8
:10B320003368022002FB05B223F001035161602261
:10B33000336000230A924FF480720C931092012222
:10B340000F930B920A221193CDE90D200AAA3046E1
:10B350003CF054FD00234FF4006294E64FF48672F3
:10B3600033680121304602FB05B223F001030B9143
:10B3700051616022336000230A924FF480720C9373
:10B380000F931193022310920A22CDE90D230AAAEA
:10B390003CF034FD0023082275E633684FF48672D2
:10B3A0004FF48071022023F0010302FB05B21091DB
:10B3B00051616022336000230C930F93119301239A
:10B3C000CDE90A230A230AAACDE90D3030463CF024
:10B3D00015FD0822042356E64FF0000C85E6DBB28B
:10B3E0000893013B6AE60CF039F9099038B1069BE5
:10B3F0000221DA79FEF7DAFF5422099BDA80736CB6
:10B4000043F40043736448E61D4A1E4BD4E5B1F58E
:10B41000805F20D0B1F5803F17D0B1F5806F15BFA8
:10B420004FF4006208223C2304232CE60223164A30
:10B4300082F8A13B67E5402915BF4FF4006208225E
:10B440003C2300231FE6DB008FE608223C231AE69C
:10B450000822042317E64FF40062042313E60822AF
:10B4600011E64FF400620EE600235B68FFDE002366
:10B470009B88FFDE41810008ABAAAAAAE801002050
:10B48000882A1100A0BB0D00F816012070B590F8B5
:10B49000B2311C09013C052C0FD81A4E054603F0A9
:10B4A0000F0306EB4402B2F8FC0840FA03F2D2079D
:10B4B00003D595F8BD21012A01D0012070BD9A4025
:10B4C0002644013A104042F067FB96F808390E4ACC
:10B4D000034402EBC30452F83320A38810691840D8
:10B4E000ECD0002395F8B3210221204685F8BD3128
:10B4F000FEF75CFFD5F82021136843F008031360C2
:10B50000DBE700BF68EA04089C220120014B53F8E6
:10B510002000704750280040014B43F8201070472E
:10B5200050280040204B2148196C214A41F080519D
:10B5300030B4196482B0196CFF2401F0805101917C
:10B540000199016841F480710160CA20196C41F4CD
:10B5500080611964196C01F4806100915321009D90
:10B560005462506251625B6FDB0013D4114B0022B6
:10B570001149C3F85428C3F85828C3F85C28C3F805
:10B580006028C3F86428C3F86828C3F8501802B0CC
:10B5900030BC7047A2F50062074BD2F850289A429F
:10B5A000E4D102B030BC7047003802400070004067
:10B5B0000028004000200040316665422DE9F84F28
:10B5C00006460868BDF828700C46850A9DF82C8050
:10B5D000A5F58015522D00F2BA801946A14B2B44D7
:10B5E00093F8F4530D2D00F2B280FDF7FBFD627964
:10B5F000B8F1000F40F0AD80A07984469A4BA901C4
:10B6000003EB851595F83CE4BEF1010F5ED04FF0D9
:10B6100001084FEA400EC00085F83C844FF0020854
:10B620000EF0020E00F0080085F83D84142A46D87A
:10B63000DFE812F08D014500450045005A01450044
:10B64000450045002601450045004500E60045004F
:10B65000450045001500450045004500B500581857
:10B66000DFF81092DFF80882D0F80004056A404540
:10B6700025F480350562056AD0F804A025F400356C
:10B6800045EA0E45D0F854E00EEA090949F0600990
:10B6900000F0908108F58068404500F08B81C0F88B
:10B6A00004A0C0F8549087650562456D45F0080513
:10B6B0004565456D25F004054565456D456558189A
:10B6C000012580F83D54002580F83C5458181CF0A2
:10B6D000020F02F01F02D0F800043FD0042505FA43
:10B6E00002F2056A25EA02050562056A2A4302623A
:10B6F000426C42F4004242645C4A85682A40062A51
:10B7000006D0B2F5803F03D0026842F00102026029
:10B710005A18022082F83D04D2F80004534A856882
:10B720002A40062A06D0B2F5803F03D0026842F0D4
:10B73000010202600B44012283F83D2421686379F1
:10B7400001F1340271600021D0183060D150BDE8A1
:10B75000F88F94F806C08CF001004FE7012505FA38
:10B7600002F2056A25EA02050562056A2A430262B9
:10B770003F4A904209D002F58062904205D0856828
:10B780003A4A2A40062ABCD1C2E7426C42F400423F
:10B790004264364A85682A40062AB2D1B8E758186A
:10B7A000DFF8D490DFF8C880D0F80004056A40457F
:10B7B00025F480150562056AD0F804A025F400156B
:10B7C00045EA0E55D0F854E00EEA090949F4C0499B
:10B7D00000F0F38008F58068404500F0EE80C0F886
:10B7E00004A0C0F85490C7650562456D45F4006536
:10B7F0004565456D25F480654565456D45655EE7A4
:10B800005818DFF87890DFF86880D0F80004056AEF
:10B81000404525F480550562056AD0F804A025F45A
:10B82000005545EA0E35D0F81CE00EEA090949F446
:10B83000C04900F0CE8008F58068404500F0C9801E
:10B84000C0F804A0C0F81C9007640562C56945F4FF
:10B850000065C561C56925F48065C561C569C561B7
:10B860002DE700BF68EA0408F81601200700010070
:10B87000000001408FFFFEFFFF8FFFFEFF8CFFFEE9
:10B880005D18DFF87891DFF878A1D5F80054D5F885
:10B890002080554528F48078C5F82080D5F8208090
:10B8A00028F4007848EA0E2ED5F80480D5F81CB0AC
:10B8B0000BEA090949F0600900F082800AF5806A04
:10B8C00055457DD0C5F80480C5F81C90EF63C5F8D8
:10B8D00020E0E86940F00800E861E86920F0040031
:10B8E000E861E869E861EAE65D18DFF81891DFF8D9
:10B8F00010A1D5F80054D5F82080554528F010083F
:10B90000C5F82080D5F8208028F0200848EA0E1ECF
:10B91000D5F80480D5F818B00BEA090949F4C049F4
:10B9200063D00AF5806A55455FD0C5F80480C5F834
:10B930001890AF63C5F820E0A86940F40060A861E2
:10B94000A86920F48060A861A869A861B7E65D18BD
:10B95000DFF8A890DFF8A8A0D5F80054D5F820802B
:10B96000554528F00108C5F82080D5F8208028F03A
:10B9700002084EEA080ED5F80480D5F818B00BEA94
:10B98000090949F0600927D00AF5806A554523D096
:10B99000C5F80480C5F818906F63C5F820E0A86961
:10B9A00040F00800A861A86920F00400A861A86917
:10B9B000A86184E64AF4803A71E64AF4802A0EE7E8
:10B9C0002EF4006E48F440584EEA002E2EF4806E9D
:10B9D00078E74AF4804A33E72EF0080E48F44078BE
:10B9E00040EA0E0E2EF0040ED2E72EF0800E48F440
:10B9F00040684EEA001E2EF0400E96E78CFFFEFFD8
:10BA000000000140FF8CFFFE2DE9F84FD0F8947044
:10BA10000446524B00F16406FDB227F0FF0982682C
:10BA200000F1180A103D4846D2F80080A3FB053506
:10BA30002D0929463CF0D6FB626D0023B2F5807FCC
:10BA400084F858307ED00DD8102A00F083805CD85E
:10BA5000012A45D0042A16BF6FF400616FF0080177
:10BA60003C230EE0B2F5805F70D0B2F5803F3AD053
:10BA7000B2F5806F15BF6FF400616FF008013C23D1
:10BA80000423324608F11806404656F803C001EA7E
:10BA90000C01F150D4F854B059463CF0AFF9BBF565
:10BAA000807F2DD023D8BBF1100F3ED036D8BBF10C
:10BAB000010F02D0BBF1040F33D14FF0080C3368F3
:10BAC00052462946484643EA0C033360402323622A
:10BAD0003CF040FB3B6843F010033B60BDE8F88F4F
:10BAE0006FF00801CDE76FF008013C23C9E7BBF513
:10BAF000805F22D0BBF5803F1AD0BBF5806F10D19C
:10BB000008F11C064FF0080CD9E7402A15BF6FF466
:10BB100000616FF008013C230023B2E7BBF1400F46
:10BB2000CBD03C364FF4006CC9E74FF4006CC6E74D
:10BB300008F154064FF0080CC1E708F11C064FF459
:10BB4000006CBCE76FF0080104239AE76FF4006112
:10BB5000042396E76FF4006193E700BFABAAAAAA9B
:10BB60002DE9F04FDFF840B287B09BF800301BB9E9
:10BB7000012007B0BDE8F08F854BD3F8D83204938D
:10BB80000CF0B8F8834A92F8243C002B00F0F880BF
:10BB90000BF23464D2F81C340BF6383A0BF6186802
:10BBA000C31A2646002705940193019A002A03DB55
:10BBB000F36D934200F3CA8007EB87030BEB43134B
:10BBC00093F88C3603F0FF0E002B00F08680D6F839
:10BBD0009410B36870481A68CBB221F0FF01103B93
:10BBE000A0FB03036D481B09C35C0B44B1895C686F
:10BBF000D368A4B223EA0103C4F11604D360072C6E
:10BC00006BD9DBF8203E002201210133154689461D
:10BC1000CBF8203ED6F89C30CDE902E718689C4668
:10BC200015E0142D1EDC17F1080E48BF07F1170EA2
:10BC30004FEA2E1705EB2E1507F1FF3E013102FAF0
:10BC400007F709FA0EFE8C424EEA07020AD30746AE
:10BC50008C425CF8040FA0EB0707E2D8C5F115078A
:10BC60001525E9E7152DDDE902E766D14C4CC2F355
:10BC70008421C2F3441004EB810104EB8000D1F86D
:10BC80001019D0F81009090241EA001102F01F0052
:10BC9000C2F3C43204EB800004EB8202D0F8100936
:10BCA000D2F81029014341EA023282EA122181EAE4
:10BCB000111101F00F010F293FD1C2F30F124FF6FE
:10BCC000FF718A4239D0B2F5606F43D0A8F80C20DA
:10BCD0007146049A50460BF0A7F930460137FFF73A
:10BCE00093FE2C4BA0360AF15C0A93F8243C08F131
:10BCF0001408BB423FF759AF01222649059C8BF837
:10BD00001C2F0022C1F81C24002B3FF431AF03EBA1
:10BD1000830304EB4313A268A03414F8901C126848
:10BD200054F84C0C11F0020F116A14BF41EA800163
:10BD300001439C421162EED11AE7DBF81C2E01325E
:10BD4000CBF81C2EB7B14FF0000EC1E7002007B0B2
:10BD5000BDE8F08F0E4991F8F03303EB430301EB9C
:10BD6000C3033B4493F89D330D2BAFD1802388F858
:10BD70001E30ADE7194658220A4840F07FFFE2E73F
:10BD8000012204498BF81C2FC1F81C34F0E600BFD7
:10BD9000F8160120D8120020ABAAAAAAB46405089C
:10BDA00068EA0408A4100020E00100202DE9F04713
:10BDB0002422D0F8205181680023C0F89421044641
:10BDC0002A6800F5907622F001022A602B606B60F1
:10BDD000AB60C0F89C3180F89031C0F89431C0F865
:10BDE00024114079C4F898318202C4F83831C4F87B
:10BDF000403102F480522379C4F82821020313F061
:10BE0000010702F40052C4F82C214FEA002202F488
:10BE10008062C4F8302103F0020240F0C680002A9C
:10BE200040F0EC80C4F83471B14B03F1200153F8B9
:10BE3000042F944200F0F7809942F8D10207D4F819
:10BE4000943140F10481002B00F0358124233046E9
:10BE5000C4F894312B6823F001032B6036F072FE96
:10BE6000012817D0D4F84431002B40F02E816B68A4
:10BE700023F490436B60AB6823F02203AB60AB68A4
:10BE800043F00803AB6030462B6843F001032B609E
:10BE90003DF046F9002F5CD0D4F8FC70002F00F084
:10BEA000F080D4F8043104F13C08C4E90F73002396
:10BEB0004046C4E91133C4E91433C4E91833C4E972
:10BEC0001A334FF48033E3654FF48063E3644FF437
:10BED0008073A3653EF01EF9404636F065F9D4F84C
:10BEE00098A1C4F88C81BAF1200F66672ED1E3685F
:10BEF000626999B252B3B1FA81F94FEA591929B37B
:10BF000094F89001012821D00B46A4F87811222141
:10BF1000C4F89C914046C4F87421C4F8981175493E
:10BF2000C4F88C90A1677449E1677449C4F888101B
:10BF300005F1240136F0D0F9002800F0CA80102362
:10BF400084F89091C4F89C31C4F894A17B68C4F83B
:10BF500014312379990764D5D4F80051002D56D0B7
:10BF6000D4F80821002304F19C07C4F8A83038460F
:10BF7000C4F8B030C4E927524022C4F8A4204FF4DA
:10BF80008062C4F8AC204FF48032C4E92D33C4E998
:10BF90003033C4E93233C4F8BC203EF0BBF8384635
:10BFA00036F002F900287FD0FEE70423C4F83431CC
:10BFB000B2B10C23C4F83431C3077FF535AFD4F8E0
:10BFC00044314FF4803243F00203C4F84C2143F073
:10BFD0000103C4F844314FF40033C4F8483123E777
:10BFE000C1077FF521AFD4F8443143F00203C4F810
:10BFF00044314FF48033C4F84C3115E70823C207AD
:10C00000C4F834317FF510AFD4F84431DFE7D4F809
:10C01000A0311A6842F080021A601A6842F04002A9
:10C020001A60BDE8F08794F8BC31002B3FF406AFEE
:10C03000D4F84431020743F00803C4F844314FF404
:10C040000043C4F85431D4F894313FF5FCAE002BD2
:10C0500034D024233046C4F894312B6823F00103F4
:10C060002B6036F06FFD01283FF414AFD4F8443153
:10C070003BBB6B6823F490436B60AB6823F02A03EF
:10C0800000E7D4F8A0311A6842F480721A609A6806
:10C0900042F001029A601A6842F020021A601A689F
:10C0A00042F010021A6054E7C4F88871C4F8D460F2
:10C0B0006860BDE8F08784F89031C7E684F8903175
:10C0C000C7E7304636F0B2FED3E7304636F0AEFE74
:10C0D000CDE684F890012B6843F480732B60AB6845
:10C0E00043F00103AB60AB6843F04003AB602DE766
:10C0F000001F0020C5E50308F5E50308F9E503087E
:10C100002DE9F041EFF31185502383F31288D0F825
:10C1100000311B6813F0010304D0EDB285F31188E0
:10C12000BDE8F081D0F894210446D0F898110A4374
:10C1300002F02102212AF0D0D0E90912914250D018
:10C1400090B23ED8194623691B1A9BB2D4F8946169
:10C15000A1620021202E84F8A411DED1A1698918E2
:10C16000DBD0B3FA83F77F09002BD6D094F8902167
:10C17000012AD2D00122D4F88801A4F8723184F8BF
:10C1800090212122C4F89C71D4F82081C4F86C114C
:10C19000A4F87031C4F89421B0B1144A0765C263A1
:10C1A000134A0264134AC26408F1280236F094F874
:10C1B00050B1102384F89071C4F89C31C4F8946194
:10C1C000ABE7081A83B2C1E700234022C8F8202059
:10C1D00084F89031D8F8083043F08003C8F808306C
:10C1E0009BE7012380F8A43197E700BF9DE5030892
:10C1F000C1E50308F9E5030870B5D0F8204105460C
:10C20000E369990614D5606AEB6AC0B2002B73D05B
:10C21000296B9847D5F82041236823F48073236065
:10C22000A36823F00103A360A36943F00803A3619B
:10C23000E369DA0701D501232362E3699B0701D58E
:10C2400002232362E3695E0701D504232362E369C5
:10C25000180701D508232362E369590615D5402341
:10C26000236295F8BD61002E30D0D5F80031D3B1EE
:10C270002846FFF745FF95F8A431002B48D095F8E4
:10C28000BD61D5F82041002E4AD0D5F8003153B118
:10C29000E369DB0606D56B6B13B19847D5F82041EF
:10C2A0001023236270BDE3691A06F1D5D5E909238D
:10C2B000934230D0A969CA5C0133D2B2A2622A6922
:10C2C000B3FBF2F102FB1133AB62E1E795F8B20187
:10C2D0000BF0C4F9236823F008032360012385F8D9
:10C2E000BD310028C1D032462021FEF75FF8D5F8D5
:10C2F0000031002BBCD1D6E7EB696A69D054EB69F9
:10C30000EA680133B3FBF2F102FB1133EB6181E721
:10C31000D5F82041B9E7236823F080032360B7E70D
:10C3200095F8B2010BF09AF9236823F00803236013
:10C33000012385F8BD310028A7D032462021FEF721
:10C3400035F8A2E72DE9F04FC74C83B004EB800429
:10C35000D4F82C4C002C71D0D4F8AC511F46DFF827
:10C36000249306466B689046A160C4F8A03109F595
:10C370001963688F2360BD4ADFF80CB3D5E90C134D
:10C38000E060C4E905312B8FC4F8A82123612A7825
:10C390000BEB420393F9A40E53000193C3B2012B9C
:10C3A00050D9D4F800E1BEF1000F13D0B04B0021FA
:10C3B000586801312433864500F002811029F7D1F5
:10C3C000AC4B93F8781029B9013283F879200B220D
:10C3D00083F87820D4F8FC90B9F1000F40F09080F9
:10C3E0006B68C4F8203195F82800002840F0A6803A
:10C3F00094F8B2010BF032F902213A07034694F89F
:10C40000B0A184F8BD1140F19C80002800F09E800E
:10C4100017F0510F00F0268117F0410F0CBF2A21B1
:10C420004A210B2201361846DE719A7194F8B32125
:10C43000FDF7BCFFB9F1000F00F0FD80204603B00E
:10C44000BDE8F08F09F5A8614FF00C0A08234FF002
:10C45000000E8C461AFB003A06E00EF1010E0CF1BC
:10C460001C0CBEF1170F19D09CF80030042BF4D12E
:10C470009CF801309342F0D15CF80A30002BECD0EC
:10C48000C4F80031CEEBCE0300EB400C9B0003EB75
:10C490008C034B44D3F84C35C4F80831019B9B44C2
:10C4A0009BF9A53E01333FF47CAF0023864604E0B0
:10C4B00001331C31172B3FF474AF91F800C0BCF16D
:10C4C000050FF5D191F801C09445F1D151F80A005A
:10C4D0000028EDD0C3EBC30384460EEB4E00D4F826
:10C4E00000E19B00C4F8FCC003EB80039944D9F839
:10C4F0004C35C4F80431BEF1000F7FF457AFE1466C
:10C500005B4A0023516801332432894536D0102B11
:10C51000F8D1584A6B6892F8781000297FF461AF1F
:10C520002978013182F879100C2182F87810C4F84A
:10C53000203195F8280000283FF45AAF3AF02CF843
:10C5400056E718F0020F01D0002868D150460BF0D2
:10C5500085F800283FF46EAF18F0010F3FF46AAF82
:10C560000C2201360221C671827194F8B121FDF7C7
:10C570001DFFB9F1000F7FF461AF5CE0DBB23D4A13
:10C58000013B03EBC30302EB830393F89C20002AD7
:10C590007FF426AF2A78D3F88000013283F89D20FB
:10C5A000354A904214BF962095200C2283F89C2097
:10C5B00039F0F2FF6B6803F12402C4F81C2110E784
:10C5C0005FFA81F92B4B09F1FF3101EBC10103EB5C
:10C5D000810393F89C1000297FF4FCAE01322648B9
:10C5E00083F89D20D3F88020824214BF96209520A6
:10C5F0000B2283F89C2039F0CFFF2346484695F85C
:10C600002B201E49FDF768FE6B68D4F8FC90283398
:10C61000C4F81831B9F1000F3FF4E2AE70E70B2215
:10C620003B06827106F10102C2712FD494F8B32146
:10C63000FDF7BCFE8AE795F82C1095F92A008909C8
:10C6400039F07EFF95F92A2095F82A30002AFFF666
:10C65000F5AE03F01F0001225B090949824041F851
:10C660002320EBE63A21DCE6D81200208DB4000846
:10C670008000012000000120006002409983000832
:10C6800000E100E068EA0408F816012001232046D2
:10C6900084F8BD31FEF7FAFE58E700BFBFF34F8FB5
:10C6A0000549064BCA6802F4E0621343CB60BFF34E
:10C6B0004F8F00BFFDE700BF00ED00E00400FA056A
:10C6C00008B572B6FFF7EAFF70B582B0FEF72AFF31
:10C6D0000320FEF71BFF01284ED0334C0025334AC0
:10C6E0000523C4F89850C4F89C50C4F8A020C4F89E
:10C6F0009430BFF34F8FBFF36F8F4FF6FF01E268A7
:10C700002B4B0A402B4E13432B4AE360536FC6F862
:10C71000BC3E35F0ADFE294B2949A3FB0023D4F8DC
:10C72000FC209B0C42F08072C4F8FC20C6F8F83361
:10C73000D6F89432234AA1FB031323499B09C2F87C
:10C74000B01F5560013B1168B3F1807F41F00101DA
:10C75000116007D34FF0E022136943F00403136123
:10C7600002B070BD4FF0E022F0215361072384F83E
:10C77000231095611361EDE702210320FEF7CCFE43
:10C780000D4B12485A6C124942F480425A645B6C59
:10C7900003F480430193019A02680B68026083F3FB
:10C7A00008884B689847FEE700ED00E01B00000694
:10C7B0000005FA05F81601200038024083DE1B430D
:10C7C000D34D6210001000E055CEACC500380140DA
:10C7D0000000F01F800AA0F5801052281CD80F4BD3
:10C7E000034493F8F4330D2B16D8013910B40C4CD4
:10C7F00004EB831CD4F894428BB2DCF800040CF2F6
:10C800000441CCF80C34B4FBF2F2013A5DF8044B6D
:10C81000CCF8042436F0B2B8704700BF68EA0408C8
:10C82000F816012070B50468A30AA3F58013522BF3
:10C8300005D82D4E334493F8F4530D2D00D970BD17
:10C840002046FCF7CFFC294BA801022203EB8515FB
:10C85000D5F8001485F83D24254A8D682A40062A1B
:10C8600006D0B2F5803F03D00A6842F001020A60A8
:10C870001A180121002382F83D141E4951F8332073
:10C8800094420AD001330E2BF8D10121002039F057
:10C8900057FE194B01221A6070BD06EBC306012139
:10C8A00096F9C54996F8C559204639F049FE002C3D
:10C8B000C5DB05F01F0201216B090F4C01FA02F2E2
:10C8C0001B2D44F8232006D1192039F039FE4FF0F2
:10C8D0000073236070BD2E2DB1D12C2039F030FEB5
:10C8E0004FF48053636070BD68EA0408F8160120B5
:10C8F0000700010028F4040800E100E003689B0A37
:10C90000A3F58013522B52D8F0B5344C234493F83E
:10C91000F4330D2B4AD84479022531484FEA831E5F
:10C9200024FA05FC00EB831605FA0CF5644603EBCC
:10C93000830CD6F8006403EB4C0C00293BD0A444D4
:10C94000F4682C4300EB8C0569606A61F460EFF3D6
:10C95000118C502282F312882C2101FB03F284589F
:10C9600002442CB3211D546203EB83021D4D03EBE3
:10C970004202920015441032024452F8044F0CB1A6
:10C980000C60211DAA42F8D100225FFA8CFC0A60DB
:10C990008CF311882C2202FB03035B6AABB1864443
:10C9A000DEF80024D36843F00103D360F0BD704784
:10C9B00011462431D8E7F768644427EA0505F56095
:10C9C00000EB840569606A61C1E77044D0F8002417
:10C9D000D36823F00103D360F0BD00BF68EA040808
:10C9E000F81601201817012003689B0AA3F580138D
:10C9F000522B00D970470F4A134493F8F4330D2B90
:10CA0000F8D8022210B40C4C407904EB831C20FAB5
:10CA100002F3DCF8000402FA03F3C26829B922EA3F
:10CA200003035DF8044BC360704713435DF8044B88
:10CA3000C360704768EA0408F816012003689B0A7F
:10CA4000A3F58013522B10D8084A134493F8F4230B
:10CA50000D2A0AD8407902230549D84001EB8212F9
:10CA60008340D2F80024DB431361704768EA04086E
:10CA7000F816012001490248FCF7CAB8F81601204F
:10CA80000000014010B5064C06482146FCF7C0F8EE
:10CA900004F5C6710448BDE81040FCF7B9B800BF02
:10CAA000F8160120000001400044014002494FF007
:10CAB0008040FCF7ADB800BF2417012001490248AF
:10CAC000FCF7A6B8501701200004004001490248B5
:10CAD000FCF79EB87C17012000080040014902487D
:10CAE000FCF796B8A8170120000C0040F8B5164DC9
:10CAF000164E2A69EB681A404FF00040B2FA82F3F2
:10CB0000EAB120FA03F3012A6FEA030302EA030100
:10CB10002B610A46F2D1D6F804718FB1013F002390
:10CB2000BFB2C6F80431D6F8004134B123682046BC
:10CB3000394698476468002CF8D10022DCE7F8BD3C
:10CB4000EF6ABFB2EFE700BF00100040F816012007
:10CB500001490248FCF75CB82C1801200004014090
:10CB600010B5064C064804F59A71FCF751F804F527
:10CB700004710448BDE81040FCF74AB8F8160120DB
:10CB800000040140001C004001490248FCF740B885
:10CB9000581801200040014001490248FCF738B80C
:10CBA000B01801200048014001490248FCF730B8A4
:10CBB000DC180120001800402DE9F0414FF42572E7
:10CBC0008EB000215E483FF087FF5E4B5E4D4FF018
:10CBD00000085A6C40F22227A5F52366A5F17004DF
:10CBE00042F001025A645A6C02F001020092009A6B
:10CBF0001A6C42F001021A641A6C02F001020192EE
:10CC0000019A1A6C42F002021A641A6C02F00202D3
:10CC10000292029A1A6C42F004021A641A6C02F030
:10CC200004020392039A1A6C42F008021A641A6C06
:10CC300002F008020492049A1A6C42F010021A647C
:10CC40001A6C02F010020592059A1A6C42F020024A
:10CC50001A641A6C02F020020692069A5A6C42F08C
:10CC600002025A645A6C02F002020792079A5A6C46
:10CC700042F480325A645A6C02F480320892089A64
:10CC80005A6C42F400325A645A6C02F4003209922F
:10CC9000099A5A6C42F480225A645A6C02F4802237
:10CCA0000A920A9A1A6C42F040021A641A6C02F054
:10CCB00040020B920B9A1A6C42F080021A641A6CB2
:10CCC00002F080020C920C9A1A6C42F480721A6480
:10CCD0001B6C03F480730D930D9B55F828100023F3
:10CCE00054F83320914226D001330E2BF8D1002086
:10CCF00008F1070839F050FCB845EED14FF00008B4
:10CD000040F2222755F82810002354F8332091428E
:10CD10000CD001330E2BF8D1002008F1070839F0B0
:10CD20003BFCB845EED10EB0BDE8F08106EBC30385
:10CD300093F8C409F1E706EBC30393F8C409D7E7F6
:10CD4000F81601200038024098F40408800AA0F583
:10CD5000801052280ED8084B034493F8F4230D2A70
:10CD600008D8064B03EB8213D3F80024136843F072
:10CD700001031360704700BF68EA0408F816012039
:10CD800038B5264C94F8C03E012B12D1042894BF2C
:10CD9000002301236BB904EB40000D4694F8D81E24
:10CDA000C4F8EC3EB4F8DA2EB0F8E23EB4F8DE0E89
:10CDB00001B138BD07EE902ADFED196AD4F8D02E04
:10CDC000B8EEE77ADFED177A27EE267A06EE902A9C
:10CDD0006422F8EE666A02FB03F366EEA76A07EECA
:10CDE000903A02FB0033B8EEE76A07EE903A27EE7E
:10CDF000067AF8EEE77A87EE270A20EE260A3FF059
:10CE000015F8D4F8C82EB4F8DC3E1060D4F8D82257
:10CE100013442B44C4F8F03E38BD00BFF81601207F
:10CE20000AD7233CCA269B3E2DE9F041A14CA4B071
:10CE3000D4F85C38022B00F039829F489F4AA04901
:10CE4000121A3FF01BFF9F489F4AA049121A3FF059
:10CE500015FFD4F85838012B00F2C08003EB4303D0
:10CE60009B4A9C4E02EB430032F813204188838892
:10CE7000C6E9B021C6F8C832974C984D984BB2FB22
:10CE8000F1F2984901FB02F20021C5F89422D4F88E
:10CE9000882042F47002C4F888201A6842F0010227
:10CEA0001A609960904A1868024090481A60C0F36E
:10CEB00008078F4A5A601A6822F480221A60D960E3
:10CEC00007B1FEE78B49A0604FF6FF000A688A4B66
:10CED00042F400720A60E26802401343E36039F0F2
:10CEE00043FEBFF34F8FBFF36F8FC4F85072BFF391
:10CEF0004F8FBFF36F8F636943F400336361BFF3F8
:10CF00004F8FBFF36F8FC4F88470BFF34F8FD4F887
:10CF1000803043F6E07CC3F3C90EC3F34E335801AF
:10CF200000EA0C01734641EA8372013B5F1CC4F8BE
:10CF30006022F8D1203810F1200FF1D1BFF34F8FCC
:10CF4000636943F480336361BFF34F8FBFF36F8F27
:10CF50006849634B0A6842F480720A60196C674A38
:10CF600041F080511964196C01F0805102910299CD
:10CF7000116841F4404111601268D6F8C04202F4D1
:10CF800040420192019A9A6802F00C02042AD6E902
:10CF9000B17100F08B809A6802F00C02082A00F050
:10CFA00081804F4A136843F480331360D5F85009E9
:10CFB00004E0D5F850391B1A642B72D813689B0310
:10CFC000F7D5474A936803F00C03082B69D0136820
:10CFD00023F080731360D5F8500908E03D4ED6E980
:10CFE000B02149E7D5F850391B1A022B59D81368DC
:10CFF0009E01F7D40B06790843EA8413013943EA0A
:10D0000001433F4919435160136843F08073136033
:10D01000334AD5F8501904E0D5F850395B1A022B81
:10D020003FD813689801F7D5136C43F0805313640D
:10D03000136C324A03F080530393039B136843F449
:10D0400080331360D5F8501905E0D5F850395B1AD4
:10D05000B3F57A7F2DD85368DB03F6D513682749DB
:10D0600043F400331360D5F8502905E0D5F8503962
:10D070009B1AB3F57A7F1CD84B689E03F6D54FF404
:10D0800000124FF0006304A804924FF4C072219381
:10D090000723CDE9082303230A9335F017FA88B351
:10D0A000FEE7FEE75B685A027FF57BAF0C4B1B681F
:10D0B00087E7FEE70020004000000000F03E00008F
:10D0C00034E7050800000020E00100205D47060865
:10D0D00020FD04080000012000ED00E0F81601200A
:10D0E0000038024040420F00FFFFF6FE000000083B
:10D0F00010300024003C02400003FA05007000409C
:10D10000080040206C4A136803F00F03062B0AD86E
:10D11000136823F00F0343F007031360136803F051
:10D120000F03072B69D1654B9A6842F4E0529A606D
:10D130009A6842F460429A609A6822F0F0029A601B
:10D140001A68900159D59A6841F2883022F003029A
:10D1500042F002029A60D5F8501904E0D5F850293F
:10D16000521A824249D89A6802F00C02082AF5D174
:10D17000514A136819070AD5136823F00F0343F0C7
:10D1800007031360136803F00F03072B35D1DFF893
:10D190002C814B4ED8F8083023F4E05343F4A053CD
:10D1A000C8F80830D8F8083023F4604343F400434B
:10D1B000C8F8083035F05CF9D8F80830C3F3031329
:10D1C000334493F8CC3120FA03F3C5F8943239F0A4
:10D1D000CBFC002304A8CDE91333CDE91533CDE909
:10D1E0001733CDE91933CDE91B33CDE91D33354B69
:10D1F000049335F06BF908B1FEE7FEE702234FF028
:10D20000007204A8CDE90633D823CDE90423012315
:10D210000B9335F05BF900B1FEE7D8F88C3023F0C2
:10D220008073C8F88C30D8F88C3043F08073C8F81D
:10D230008C30D8F8083003F00C03042B31D0082BC5
:10D2400012D0214B2149B4FBF7F201FB02F21B493A
:10D250008968C1F303110E4496F8CC11CB409A4271
:10D26000C5F894321FD0FEE7D8F80430D8F804206F
:10D2700013F4800FD8F8043002F03F0218BF1449AD
:10D28000C3F3881308BF1049B1FBF2F202FB03F3AA
:10D290000A4A5268C2F3014201325200B3FBF2F370
:10D2A000D0E70B4BCEE724B0BDE8F081002103208E
:10D2B000FEF732F9FFF7F2F9003C02400038024075
:10D2C00060FB0408C0FF03000024F40040420F008C
:10D2D00000127A000548D0F8A43223B1DB6A13B1FA
:10D2E00000F5297018470248704700BFF816012062
:10D2F0003CFD040810B5154CD4F8F43E1B883BB92E
:10D30000002384F8033F84F89C32C4F8983210BD9F
:10D31000D4F8F82E002AF3DDD4F8FC1E012A488840
:10D3200005D00123A4F8000F84F8023FE8E78A88BB
:10D330000132121A9A42F4D10022D4F8A43204F530
:10D3400029701B69C4F8D0229847D9E7F816012044
:10D350000748D0F8A03213B190F8023F0BB100207B
:10D360007047D0F8A43200F529705B68184700BFF9
:10D37000F8160120164A30B4164D92F89C324560DA
:10D38000EC1892F8033F046092F89C02834216D88E
:10D3900092F89C02834206D300231A46184630BCFA
:10D3A000C1E90032704792F89C021A1EC0F1800356
:10D3B0000CBF0120022030BCC1E90032704792F856
:10D3C0009C42002201201B1B30BCC1E90032704787
:10D3D000F8160120241F00200F4B93F89C2293F88D
:10D3E000030F93F89C22904293F89C220FD890420E
:10D3F00004D3D3F8983200201844704793F89C2245
:10D40000D3F89832C2F18002104418447047801A51
:10D41000D3F8983218447047F816012070B51B4CA9
:10D4200084B01B4B94F89C220393134494F8031F7D
:10D43000029394F89C32994294F89C3216D89942FF
:10D440000CD294F89C520E46C5F18005D9B92B46F2
:10D4500001223F2BCDE900560DD860B994F89C020B
:10D46000401AB0FA80F0400904B070BDCB1A002613
:10D4700001221D46EDE76946002302A83DF07EFF2C
:10D4800094F8031FEAE76B180222E2E7F81601207E
:10D49000241F00202DE9F043164685B000293CD01A
:10D4A000451E284CDFF8A4804FF000096F180DE0EE
:10D4B00094F89C320846994294F89C321DD2C3F1EC
:10D4C000800318443F281BD8AF4226D094F8030F9E
:10D4D00015F8013F411C4044C9B280F84C3C0B0692
:10D4E00084F8031FE4D5002094F89C3284F8039F4D
:10D4F0000146994294F89C32E1D3C01A3F28E3D9FF
:10D5000094F89C329942DFD00F4B1B78002BDBD074
:10D510000020FFF783FFAF42D8D1694602A8FFF78A
:10D5200029FFDDE9003213443F2B00D910B905B0C3
:10D53000BDE8F0830246334602A83DF01FFF05B068
:10D54000BDE8F083F816012000000120D812002069
:10D5500030B585B0694602A8FFF70CFF58B9094CF1
:10D5600004F52975D4F8A43228465B68984700284A
:10D57000F8D005B030BD0246012302A83DF0FEFE02
:10D58000EDE700BFF81601202DE9F0410F4C1646DB
:10D5900082180546D4F8A0320F469A4294F8032F19
:10D5A00088BF1E1A94F89C329A4201D0FFF7D0FF30
:10D5B000002033463A462946C4F8D002D4F8A402E3
:10D5C000846A0348A446BDE8F0416047F81601208C
:10D5D0009C1901208C461346014662461846D3E743
:10D5E00038B5244C002204F604701346C4F8A02277
:10D5F00002461178063202292BD00133062BF8D1CE
:10D600000022D4F8A432C4F8FC2EF3B1DA6AE2B1F5
:10D6100019489047D4F8FC3EC4F8F40EA3B15988D9
:10D620009A884368521A02FB0333C4F8A032FBF70E
:10D630000BF894F89C32054694F8032F9A4201D0D7
:10D64000FFF786FFC4F8985238BD0C4BC4F8F43E7F
:10D6500038BD03EB4303D4F8A42200EB4303C4F822
:10D66000FC3E12B1D26A002AD2D10448C4F8F40EAA
:10D67000D5E700BFF81601209C1901203CFD0408E5
:10D6800010B50A4CD4F8A4325B6A13B104F52970C2
:10D690009847D4F89832D4F8F42E013B52881344BA
:10D6A00052421340C4F8983210BD00BFF816012052
:10D6B0002DE9F043384E93B0FFF71CFEFFF790FFC3
:10D6C00096F89C3296F8032F9A4201D0FFF740FF5C
:10D6D0000025D6F8A072C6F8985297B16C46DFF8CC
:10D6E000BC802A4641462046203501F0FDFD2046FB
:10D6F0003FF086F9012201462046FFF7CBFEAF42FC
:10D70000EFD896F89C3296F8032F9A4201D0FFF793
:10D710001FFFD6F8F43E9B7B012B36D096F89C3247
:10D7200096F8032F9A4201D0FFF712FF0020C6F8A7
:10D7300098026FB380466C46DFF86090054601E0C2
:10D74000AF421CD92A46494609A801F0CDFD212245
:10D75000002120463FF0C0F9202221462846FFF74D
:10D7600013FF2022064609A9204620353FF064FB1E
:10D7700008B9202EE4D0AF4208F10108E2D8B8FA87
:10D7800088F0400913B0BDE8F083FFF779FFC5E7E3
:10D79000012013B0BDE8F083F816012024640508C9
:10D7A0000B4B93F8CC0218B90A4B93F8280F70472B
:10D7B000094AD2F85C180329F6D106494FF0010C4A
:10D7C00081F828CF0021C2F85C1883F8CC1270478A
:10D7D00000000120F816012000200040032104462B
:10D7E00008B50846FDF798FE72B6104BD3F8300F17
:10D7F000D3F8341F50EA01020AD100221146042056
:10D80000FDF78AFE11460520FDF786FEFEF746FF6E
:10D81000D3F8D8224EF66023121803FB04F041F12E
:10D820000001821841EBE071E9E700BFF816012022
:10D830000021032008B5FDF76FFE72B6FEF72EFF3C
:10D84000154C08B5D4F8383F94F83E0FABB9142006
:10D850000CF064FE00BFD4F8383F5BB1196894F84F
:10D860003E2F9B8809690B4012B91BB1FFF7E0FFFF
:10D87000002BFBD0FAF71CFFECE719689A880B69BC
:10D88000134020B1002BE2D10B691340FAE7002BC3
:10D89000DDD00B691340FAE7F8160120F8B51C201B
:10D8A00009F0DCFE04461121FDF7D6F87CB3A3880D
:10D8B000C82022681B0493610CF030FE2046FCF760
:10D8C000B5FB1B2009F0CAFE08B12923C380292318
:10D8D000E380284CD4F8CC3113B10023C4F8CC3108
:10D8E0000023254E0125254FC4F8C86187F8403F25
:10D8F00084F8B4513CF040F906F11C03C4F8CC3173
